:0400000002005F3269
:01000B0032C2
:0100130032BA
:01001B0032B2
:0300230002073C95
:03002B00027870E8
:0300C20002002E0B
:03002E000200C904
:1000C50053D9BF22C00D85810DE581241FF581A976
:1000D5000D097753E904A8E07679740229A8E0763A
:1000E50073740329A8E07674740429A8E07665740E
:1000F5000529A8E0766D740629A8E07620740729FD
:10010500A8E07673740829A8E07674740929A8E034
:100115007661740A29A8E07672740B29A8E07674D2
:10012500740C29A8E0762E740D29A8E0762E740E9D
:1001350029A8E0762E740F29A8E0760D741029A859
:10014500E0760A741129A8E07600E50D2413F87607
:1001550052E804C000A8E07675D000740228C000FB
:10016500A8E0766ED000740328C000A8E0766ED0B3
:1001750000740428C000A8E07669D000740528C082
:1001850000A8E0766ED000740628C000A8E0766767
:10019500D000740728C000A8E0762ED00074082887
:1001A500C000A8E0762ED000740928C000A8E0762B
:1001B5002ED000740A28C000A8E0760DD000740B7C
:1001C50028C000A8E0760AD000740C28A8E07600C4
:1001D50089078F057E007F4075B2837B007C011BFC
:1001E500BBFF011CEB4C60030201E475EF0475A72E
:1001F500FF43A41075E10175E240C007C006C005C4
:100205007480C0E075828075832575F000740012D6
:1002150005F41581D005D006D0078D828E838FF029
:10022500127C96FCEC700302025FC007C006C00595
:10023500742CC0E07401C0E0C004758200758300B1
:1002450075F0001208C0158115811581D005D006FD
:10025500D0070DBD00010E02021F7401C0E074003D
:10026500C0E07400C0E004C0E07400C0E0C0E0C0BD
:10027500E07480C0E07400C0E07456C0E0747DC0D6
:10028500E07480C0E07582A575830212255CE58166
:1002950024F4F581122E4602029C850D81D00D2293
:1002A500C0E0C0A8C2AF7404C0E07400C0E0740030
:1002B500C0E07402C0E07400C0E0C0E0C0E0743289
:1002C500C0E07400C0E07461C0E0747DC0E074807B
:1002D500C0E07582B775830312255CE58124F4F5CA
:1002E500817407C0E07400C0E07400C0E07403C00E
:1002F500E07400C0E0C0E0C0E07432C0E07400C04B
:10030500E0746BC0E0747DC0E07480C0E075823E2F
:1003150075830412255CE58124F4F581740AC0E037
:100325007400C0E07400C0E07402C0E07400C0E076
:10033500C0E0C0E07432C0E07400C0E07475C0E095
:10034500747DC0E07480C0E07582D0758304122589
:100355005CE58124F4F581740DC0E07400C0E0749F
:1003650000C0E07403C0E07400C0E0C0E0C0E07409
:1003750032C0E07400C0E0747FC0E0747DC0E074FA
:1003850080C0E075826275830512255CE58124F4E1
:10039500F581900001E0FDA3E0FEA3E0FF8D828ED4
:1003A500838FF0122C8BD0E053E080E5E042A8D09B
:1003B500E022742CC0E07401C0E07454C0E0758282
:1003C5000075830075F0001208C01581158115812F
:1003D500742CC0E07401C0E07430C0E07582007513
:1003E500830075F0001208C0158115811581742CE4
:1003F500C0E07401C0E0740DC0E075820075830033
:1004050075F0001208C0158115811581742CC0E0A6
:100415007401C0E0740AC0E075820075830075F050
:10042500001208C0158115811581B2B375826475F6
:100435008300122E100203B722742CC0E07401C091
:10044500E07454C0E075820075830075F0001208F1
:10045500C0158115811581742CC0E07401C0E0744C
:1004650031C0E075820075830075F0001208C01573
:100475008115811581742CC0E07401C0E0740DC034
:10048500E075820075830075F0001208C0158115AE
:10049500811581742CC0E07401C0E0740AC0E07558
:1004A500820075830075F0001208C015811581154D
:1004B50081C2B475821E758300122E10D2B4758266
:1004C50046758300122E1002043E22742CC0E0747F
:1004D50001C0E07454C0E075820075830075F000BA
:1004E5001208C0158115811581742CC0E07401C0F6
:1004F500E07432C0E075820075830075F000120863
:10050500C0158115811581742CC0E07401C0E0749B
:100515000DC0E075820075830075F0001208C015E6
:100525008115811581742CC0E07401C0E0740AC086
:10053500E075820075830075F0001208C0158115FD
:10054500811581C2B5758264758300122E10D2B5EE
:10055500758232758300122E100204D022742CC0CD
:10056500E07401C0E07454C0E075820075830075C5
:10057500F0001208C0158115811581742CC0E07436
:1005850001C0E07433C0E075820075830075F0002A
:100595001208C0158115811581742CC0E07401C045
:1005A500E0740DC0E075820075830075F0001208D7
:1005B500C0158115811581742CC0E07401C0E074EB
:1005C5000AC0E075820075830075F0001208C01539
:1005D5008115811581C2B6758246758300122E106C
:0F05E500D2B675821E758300122E100205622297
:107D560073746172745F7461736B006C6564305F19
:107D66007461736B006C6564315F7461736B006C76
:107D76006564325F7461736B006C6564335F746154
:037D8600736B001C
:1005F400C00D85810DC082C083C0F0C0E0C0E0C0E2
:10060400A8C2AF7508017400C0E004C0E0E50D2481
:10061400FDF88682120C33AA82AB83AFF0158115E4
:1006240081900010EAF0EBA3F0EFA3F07400C0E0B7
:1006340004C0E0E50D24FDF88682120C33AD82AED1
:1006440083AFF015811581900013EDF0EEA3F0EF68
:10065400A3F0759810A80D0886820886830886F092
:1006640008E612791FAC82AD83AEF0FFC004C0056A
:10067400C006C00775820075831B75F037744B1272
:100684007BD3AC82AD83AEF0FFE58124FCF58174AD
:1006940000C0E0C0E0C0E07440C0E08C828D838E76
:1006A400F0EF127BD3AC82AD83AEF0FFE58124FC86
:1006B400F5817400C0E0C0E07480C0E003C0E08C49
:1006C400828D838EF0EF127BD3AC82AD83AEF0FFCC
:1006D400E58124FCF581C004C005C006C00775820D
:1006E4000075834075F08074431278C8AC82AD8382
:1006F400AEF0FFE58124FCF5818C828D838EF0EFD2
:10070400127932AF82538908438920538EF4438E81
:10071400018F8B8F8D759850D2ACD28ED299D0E048
:1007240053E080E5E042A8D0E0758200758300754F
:10073400F000850D81D00D22C020C0E0C0F0C08241
:10074400C083C007C006C005C004C003C002C00106
:10075400C000C0D075D000C00D85810DE581240591
:10076400F581E50D2404F87600C0E0C0A8C2AF20EE
:1007740098030207CDE50D2405F8A699C298E50D66
:100784002404FF7E007D40E50D2405FCA80D08A689
:1007940004087600087640900010E0FAA3E0FBA37A
:1007A400E0FC7400C0E0C007C006C005A80D08E660
:1007B400C0E008E6C0E008E6C0E08A828B838CF0E3
:1007C4001210CBE58124F9F581209903020833E561
:1007D4000D2404FF7E007D40E50D2405FCA80D08D2
:1007E400A604087600087640900013E0FAA3E0FB24
:1007F400A3E0FCC007C006C005A80D08E6C0E008D9
:10080400E6C0E008E6C0E08A828B838CF0121BB05D
:10081400AF82E58124FAF581BF0102800302082E2C
:10082400E50D2405F88699020831750801C299E599
:100834000D2404F8E67003020841127785D0E053D2
:10084400E080E5E042A8D0E0850D81D00DD0D0D085
:1008540000D001D002D003D004D005D006D007D0F8
:1008640083D082D0F0D0E0D02032C00D85810DE558
:100874000D24FBF88605088606088607900010E01C
:10088400FAA3E0FBA3E0FCE50D24F9F8E6C0E008D8
:10089400E6C0E0C005C006C0078A828B838CF012D4
:1008A4001341AF82E58124FBF581EF70030208BA9E
:1008B4007582010208BD758200D00D22C00D8581AC
:1008C4000DC0E0C0A8C2AF7401B5080280030208DD
:1008D400E4E50D24FDF886997508007F0102092BD3
:1008E400E50D24FDFE8E077D007C40900013E0FAA8
:1008F400A3E0FBA3E0FE7400C0E0E50D24FBF8E6F2
:10090400C0E008E6C0E0C007C005C0048A828B834B
:100914008EF0120DDEAE82E58124FAF5818E07EEAB
:10092400600302092B7F01D0E053E080E5E042A898
:10093400D0E08F82D00D2222C00D85810DC082C0EF
:1009440083C0F0E581240AF581E50D240DF87601D4
:10095400A80D08E608467003020C1FA80D087425AC
:1009640026FA74000836FB0886048A828B838CF08E
:10097400127C96FFBF01005003020C1FC002C0038B
:10098400C0048F037C00C002C003C0047582FF75DD
:1009940083FF1278D3AB82AC8315811581D002A872
:1009A4000D08E50D240AF9742626F77400083609A3
:1009B400F708E609F7E50D240AF886820886830815
:1009C40086F0127C96FA7F00C3EB9AEC9FD004D099
:1009D40003D0025003020C1FC0E0C0A8C2AFA80D90
:1009E40008E50D2407F9740626F77400083609F79C
:1009F40008E609F7A80D0886820886830886F0E5CC
:100A04000D2404F9127C96F7A3127C9609F7A3121D
:100A14007C9609F78A828B838CF0127C96FFE50D15
:100A2400240AF886820886830886F0127C96FE8F54
:100A3400F0EEA4C8E50D2404C826FD08E635F0FE52
:100A4400088607E50D2407F886820886830886F061
:100A5400ED12796BA3EE12796BA3EF12796BA80DEB
:100A640008742426FD74000836FE0886078D828EDD
:100A7400838FF0740012796BA80D08E50D2404F936
:100A8400740326F77400083609F708E609F7A80D79
:100A94000886820886830886F0127C96FDA3127C61
:100AA40096FEA3127C96FFE50D2404F88682088640
:100AB400830886F0ED12796BA3EE12796BA3EF1223
:100AC400796BE50D2407F8E50D2404F9740326F782
:100AD4007400083609F708E609F7A80D08868208A5
:100AE40086830886F0127C96FDA3127C96FEA312E0
:100AF4007C96FF8A828B838CF0127C96FA7C00E5CC
:100B04000D2407F8EA24FFF6EC34FF08F6E50D247B
:100B14000AF886820886830886F0127C96FB7C009D
:100B2400C007C006C005C003C004E50D2407F8864D
:100B340082088683127986AB82AC8315811581D0B5
:100B440005D006D007EB2DFDEC3EFEE50D2404F8A0
:100B540086820886830886F0ED12796BA3EE1279FB
:100B64006BA3EF12796BA80D08742726FD74000897
:100B740036FE0886078D828E838FF074FF12796BA0
:100B8400A80D08742826FD74000836FE0886078D13
:100B9400828E838FF074FF12796BE50D24FDF8E6E5
:100BA4006003020BE1A80D08740C26FD74000836DE
:100BB400FE0886078D828E838FF0127C9670030266
:100BC4000C11A80D08740C26FD74000836FE088666
:100BD400078D828E838FF012408E020C11A80D08AF
:100BE400740C26FD74000836FE0886078D828E83F9
:100BF4008FF0126DB2A80D08741826FD7400083623
:100C0400FE0886078D828E838FF0126DB2D0E0537A
:100C1400E080E5E042A8D0E0020C26E50D240DF8C2
:100C24007600E50D240DF88682850D81D00D22C055
:100C34000D85810DC0827C007D007E00A80D08E634
:100C44007003020D11C004C005C006A80D08860279
:100C54007B00C006C005C004C002C0037582FF75D6
:100C640083FF1278D3AA82AB8315811581D004D077
:100C740005D006E50D24FDF886057E00C3EA9DEB4C
:100C84009ED006D005D0045003020D11A80D08E52E
:100C94000D24FDF986F0E7A4FAABF0C374D69A7478
:100CA400FF9B5003020D1174292AFA74003BFB8A3E
:100CB400828B83127433AA82AB83AFF08A048B05D0
:100CC4008F06EC4D7003020D118C028D038E077498
:100CD400292AFA74003BFBC006C005C004C004C046
:100CE40005C006E50D24FCF8E6C0E0C002C003C060
:100CF40007E50D24FDF8E6C0E0A80D088682120D74
:100D04001CE58124F8F581D004D005D0068C828DB1
:100D1400838EF01581D00D22C00D85810DC082E532
:100D24000D24FDF8E66003020D5FE50D24F6F88658
:100D340004088605088606E50D24F6F8860208866A
:100D4400030886078C828D838EF0EA12796BA3EBFD
:100D540012796BA3EF12796B020D8DE50D24F6F871
:100D64008604088605088606E50D24FAF886020836
:100D740086030886078C828D838EF0EA12796BA332
:100D8400EB12796BA3EF12796BE50D24F6F8860567
:100D940008860608860774252DFA74003EFB8F0426
:100DA4008A828B838CF0A80D08E612796B74262D49
:100DB400FA74003EFB8F048A828B838CF0E50D2449
:100DC400FDF8E612796B7401C0E08D828E838FF09A
:100DD40012093C15811581D00D22C00D85810DE5C8
:100DE400812411F581AD82AB83ACF0E50D240EF8BE
:100DF4007600E50D240FF8A60508A60308A604E569
:100E04000D24F8F8B60204740180027400FFE50DA5
:100E1400240BFEE50D2407F8A606A80D0874242D5E
:100E2400F674003B08F608A604E50D2404F87425BE
:100E34002DF674003B08F608A604C0E0C0A8C2AFB3
:100E4400A80D0886820886830886F0127C96FDE544
:100E54000D2404F886820886830886F0127C96FCAA
:100E6400C3ED9C5003020E72EF7003020EEAE50D0F
:100E740024F8F8E6C0E0E50D24FBF8E6C0E008E657
:100E8400C0E008E6C0E0E50D240FF88682088683FA
:100E94000886F0121E1BE58124FCF581E50D240F64
:100EA400F8741826FA74000836FB0886048A828BC4
:100EB400838CF0127C967003020ED9E50D240FF892
:100EC400741826FA74000836FB0886048A828B8319
:100ED4008CF012408ED0E053E080E5E042A8D0E0F0
:100EE4007582010210C5E50D24F9F8E60846600391
:100EF400020F08D0E053E080E5E042A8D0E075821C
:100F0400000210C5E50D240EF8E66003020F318ED1
:100F1400027B007C408A828B838CF0C007C006125F
:100F24004E80D006D007E50D240EF87601D0E053AC
:100F3400E080E5E042A8D0E0C007C006122EB4D09D
:100F440006D007C0E0C0A8C2AFE50D240FF874278F
:100F540026FA74000836FB0886048A828B838CF098
:100F6400127C96FDBDFF028003020F7B8A828B8375
:100F74008CF0740012796BE50D240FF8742826FAAE
:100F840074000836FB0886048A828B838CF0127CFA
:100F940096FDBDFF028003020FA98A828B838CF029
:100FA400740012796BC007D0E053E080E5E042A8FA
:100FB400D0E0E50D24F9FCE50D2408F8A604087634
:100FC40000087640E50D2407F886047D007F40C0C4
:100FD40006E50D2408F8E6C0E008E6C0E008E6C02F
:100FE400E08C828D838FF0124EB2AF821581158111
:100FF4001581D006EFD00760030210AFE50D240F72
:10100400F886820886830886F0C007C0061224CDBD
:10101400E582D006D0077003021089E50D240FF88D
:10102400740C26FB74000836FC088605C007C0064D
:10103400E50D24F9F8E6C0E008E6C0E08B828C8375
:101044008DF0123E7215811581D006D007E50D246E
:101054000FF886820886830886F0C007C00612222D
:10106400CCD006D007C007C006122EBCE582D0063D
:10107400D0076003020E3EC007C006127785D00673
:10108400D007020E3EE50D240FF8868208868308F9
:1010940086F0C007C0061222CCD006D007C007C015
:1010A40006122EBCD006D007020E3EE50D240FF822
:1010B40086820886830886F01222CC122EBC7582A2
:1010C40000850D81D00D22C00D85810D058105811E
:1010D4000581AA82AB83ACF0A80D08A60208A6037A
:1010E40008A60474242AFD74003BFE8C078D828EAE
:1010F400838FF0127C96FD74252AFC74003BFE8CD1
:10110400078C828E838FF0127C96FCC3ED9C500377
:10111400021124E50D24F7F8B6020280030212102E
:10112400A80D08742826FD74000836FE0886078D6D
:10113400828E838FF0127C96FFA80D08742426FCFF
:1011440074000836FD0886068C828D838EF0127C2E
:1011540096C007E50D24F7F8E6C0E0E50D24FBF89A
:10116400E6C0E008E6C0E008E6C0E0A80D08868214
:101174000886830886F0121E1BE58124FCF581D0C5
:1011840007BFFF0280030211F1A80D08741826FCA2
:1011940074000836FD0886068C828D838EF0127CDE
:1011A40096700302120BA80D08741826FC7400082C
:1011B40036FD0886068C828D838EF012408EE58281
:1011C400700302120BE50D24F8F8E60846700302DA
:1011D400120BE50D24F8F886040886050886068CAB
:1011E400828D838EF0740112796B02120BA80D08A4
:1011F400742826FC74000836FD0886060F8C828D40
:10120400838EF0EF12796B7F010212127F008F82BE
:10121400850D81D00D22C00D85810DE5812407F552
:1012240081C8E50D2404C8A68208A68308A6F0E5B3
:101234000D2404F8742426FA74000836FB08860486
:101244008A828B838CF0E50D2407F8127C96F6E5F0
:101254000D2404F8742526FD74000836FE0886075C
:101264008D828E838FF0127C96FDE50D2407F8C3E2
:10127400E69D4003021337E50D2404F8A90D097413
:101284002826F77400083609F708E609F7A80D08B8
:1012940086820886830886F0127C96FFE50D240773
:1012A400F8E604FE8A828B838CF0EE12796BBFFF22
:1012B400028003021322E50D2404F8741826FC743A
:1012C400000836FD0886068C828D838EF0127C968B
:1012D4007003021332E50D2404F8741826FC74001C
:1012E4000836FD0886068C828D838EF012408EE5CA
:1012F400827003021332E50D24FBF8E608467003FE
:10130400021332E50D24FBF88604088605088606D8
:101314008C828D838EF0740112796B0213320FA8C4
:101324000D0886820886830886F0EF12796B7F01A8
:101334000213397F008F82850D81D00D22C00D8567
:10134400810DE581240BF581AC82AD83AFF0E50D11
:101354002405F87600E50D2409F8A60408A6050876
:10136400A607E50D2406FEE50D2404F8A606A80D3F
:101374000874242CF674003D08F608A607C0E0C0E3
:10138400A8C2AFA80D0886820886830886F0127C5E
:1013940096FC8C05EC7003021430C005E50D24FBAB
:1013A400F8E6C0E008E6C0E008E6C0E0E50D240980
:1013B400F886820886830886F012217515811581C6
:1013C4001581D005E50D2409F8742426FB74000862
:1013D40036FC088607ED14FA8B828C838FF0EA12B0
:1013E400796BE50D2409F8740C26FB74000836FCAF
:1013F4000886078B828C838FF0127C96700302140C
:101404001FE50D2409F8740C26FB74000836FC084B
:1014140086078B828C838FF012408ED0E053E0805D
:10142400E5E042A8D0E07582010215F7E50D24F944
:10143400F8E60846600302144ED0E053E080E5E08D
:1014440042A8D0E07582000215F7E50D2405F8E600
:1014540060030214738E037C007F408B828C838F25
:10146400F0C006124E80D006E50D2405F87601D0B2
:10147400E053E080E5E042A8D0E0C006122EB4D0EC
:1014840006C0E0C0A8C2AFE50D2409F8742726FB06
:1014940074000836FC0886078B828C838FF0127CDC
:1014A40096FABAFF0280030214B98B828C838FF000
:1014B400740012796BE50D2409F8742826FB740076
:1014C4000836FC0886078B828C838FF0127C96FA90
:1014D400BAFF0280030214E78B828C838FF07400BE
:1014E40012796BC006D0E053E080E5E042A8D0E07A
:1014F400E50D24F9FF7C007B40E50D2404F8860209
:101504007D007E40C006C007C004C0038A828D836C
:101514008EF0124EB2AF82158115811581D006D09E
:1015240006EF60030215BEE50D2409F886820886DD
:10153400830886F0C006122470E582D00670030288
:1015440015A0E50D2409F8741826FC74000836FD6E
:10155400088607C006E50D24F9F8E6C0E008E6C0F1
:10156400E08C828D838FF0123E7215811581D00636
:10157400E50D2409F886820886830886F0C00612E1
:1015840022CCD006C006122EBCE582D0066003022F
:101594001381C006127785D006021381E50D240954
:1015A400F886820886830886F0C0061222CCD0060C
:1015B400C006122EBCD006021381E50D2409F8865C
:1015C400820886830886F0C0061222CCD006C006A4
:1015D400122EBCD006E50D2409F8868208868308FD
:1015E40086F0C006122470E582D0067003021381CF
:1015F400758200850D81D00D22C00D85810DE58198
:10160400240BF581AC82AD83AFF0E50D240BF876A5
:1016140000E50D2405F8A60408A60508A607E50DAF
:101624002408FEA80D08A606A80D080874242CF6A4
:1016340074003D08F608A607C0E0C0A8C2AFA80D14
:10164400080886820886830886F0127C96FC8C073C
:10165400EC70030216B7EF14FCA80D080886820884
:1016640086830886F0EC12796BE50D2405F8740C7A
:1016740026FB74000836FC0886078B828C838FF067
:10168400127C9670030216A6E50D2405F8740C2648
:10169400FB74000836FC0886078B828C838FF0125B
:1016A400408ED0E053E080E5E042A8D0E0758201AE
:1016B40002187CE50D24FCF8E6084660030216D502
:1016C400D0E053E080E5E042A8D0E0758200021843
:1016D4007CE50D240BF8E660030216FA8E037C0009
:1016E4007F408B828C838FF0C006124E80D006E53B
:1016F4000D240BF87601D0E053E080E5E042A8D059
:10170400E0C006122EB4D006C0E0C0A8C2AFE50DFA
:101714002405F8742726FB74000836FC0886078B1A
:10172400828C838FF0127C96FABAFF028003021730
:10173400408B828C838FF0740012796BE50D240545
:10174400F8742826FB74000836FC0886078B828C04
:10175400838FF0127C96FABAFF02800302176E8B15
:10176400828C838FF0740012796BC006D0E053E052
:1017740080E5E042A8D0E0E50D24FCFF7C007B403E
:10178400A80D0886027D007E40C006C007C004C0C4
:10179400038A828D838EF0124EB2AF821581158139
:1017A4001581D006D006EF6003021843E50D240529
:1017B400F886820886830886F0C006122470E582C3
:1017C400D0067003021825E50D2405F8741826FCCC
:1017D40074000836FD088607C006E50D24FCF8E60B
:1017E400C0E008E6C0E08C828D838FF0123E721553
:1017F400811581D006E50D2405F8868208868308C4
:1018040086F0C0061222CCD006C006122EBCE58299
:10181400D006600302163CC006127785D006021675
:101824003CE50D2405F886820886830886F0C00608
:101834001222CCD006C006122EBCD00602163CE5FD
:101844000D2405F886820886830886F0C0061222D5
:10185400CCD006C006122EBCD006E50D2405F886B1
:10186400820886830886F0C006122470E582D006BA
:10187400700302163C758200850D81D00D22C00DC7
:1018840085810DE581240DF581AD82AB83AFF07CBC
:1018940000E50D240BF8A60508A60308A607E50D28
:1018A4002408FEA80D08A606A80D080874242DF621
:1018B40074003B08F608A607C0E0C0A8C2AFA80D94
:1018C400080886820886830886F0127C96700302D4
:1018D40019ACE50D240BF8740626FA74000836FBDF
:1018E40008860774032AFA74003BFB8A828B838F71
:1018F400F0127C96FEA3127C96FDA3127C96FCC08B
:1019040006C005C004E50D24FBF8E6C0E008E6C007
:10191400E008E6C0E0E50D240BF88682088683081B
:1019240086F0122175158115811581D004D005D05A
:1019340006E50D240BF8740626FA74000836FB0835
:10194400860774032AFA74003BFB8A828B838FF028
:10195400EE12796BA3ED12796BA3EC12796BE50DA2
:10196400240BF8741826FA74000836FB0886078AD4
:10197400828B838FF0127C96700302199BE50D24F1
:101984000BF8741826FA74000836FB0886078A8256
:101994008B838FF012408ED0E053E080E5E042A8C4
:1019A400D0E0758201021BAAE50D24F9F8E6084689
:1019B40060030219CAD0E053E080E5E042A8D0E019
:1019C400758200021BAAEC60030219E58E027B00FB
:1019D4007F408A828B838FF0C006124E80D0067CB3
:1019E40001D0E053E080E5E042A8D0E0C006C004A6
:1019F400122EB4D004D006C0E0C0A8C2AFE50D24B6
:101A04000BF8742726FA74000836FB0886078A82C6
:101A14008B838FF0127C96FDBDFF028003021A2F88
:101A24008A828B838FF0740012796BE50D240BF896
:101A3400742826FA74000836FB0886078A828B838A
:101A44008FF0127C96FDBDFF028003021A5D8A822C
:101A54008B838FF0740012796BC004D0E053E08064
:101A6400E5E042A8D0E0E50D24F9FFE50D2405F8F2
:101A7400A607087600087640A80D0886047D007F36
:101A840040C006C004E50D2405F8E6C0E008E6C041
:101A9400E008E6C0E08C828D838FF0124EB2AF82F4
:101AA400158115811581D004D006D004EF6003029E
:101AB4001B65E50D240BF886820886830886F0C032
:101AC40006C004122470E582D004D0067003021B01
:101AD4003FE50D240BF8741826FB74000836FD0846
:101AE4008607C006C004E50D24F9F8E6C0E008E660
:101AF400C0E08B828D838FF0123E7215811581D0E8
:101B040004D006E50D240BF886820886830886F047
:101B1400C006C0041222CCD004D006C006C00412F1
:101B24002EBCE582D004D00660030218BCC006C0F7
:101B340004127785D004D0060218BCE50D240BF8F6
:101B440086820886830886F0C006C0041222CCD0A0
:101B540004D006C006C004122EBCD004D00602185D
:101B6400BCE50D240BF886820886830886F0C0063F
:101B7400C0041222CCD004D006C006C004122EBC6D
:101B8400D004D006E50D240BF886820886830886E7
:101B9400F0C006C004122470E582D004D00670039D
:101BA4000218BC758200850D81D00D22C00D85817F
:101BB4000DC082C083C0F0A80D08742426FA7400F6
:101BC4000836FB0886048A828B838CF0127C96FA92
:101BD4008A04EA7003021CC6A80D08742726FA7446
:101BE400000836FB0886078A828B838FF0127C9666
:101BF400FFC007C004E50D24FBF8E6C0E008E6C01A
:101C0400E008E6C0E0A80D0886820886830886F00E
:101C1400122175158115811581D004D007A80D08EE
:101C2400742426FB74000836FD0886061C8B828DFE
:101C3400838EF0EC12796BBFFF028003021CA7A80D
:101C44000D08740C26FC74000836FD0886068C8288
:101C54008D838EF0127C967003021CC1A80D08744B
:101C64000C26FC74000836FD0886068C828D838E53
:101C7400F012408EE5827003021CC1E50D24F8F8D1
:101C8400E608467003021CC1E50D24F8F886040832
:101C940086050886068C828D838EF0740112796B1A
:101CA400021CC1A80D08742726FC74000836FD0820
:101CB40086060F8C828D838EF0EF12796B7F010282
:101CC4001CC87F008F82850D81D00D22C00D8581B7
:101CD4000DAD82AE83AFF074242DFA74003EFB8FF9
:101CE400048A828B838CF0127C967003021D7974B3
:101CF400062DFA74003EFB8F0474032AFA74003B29
:101D0400FB8A828B838CF0127C96FAA3127C96FB5E
:101D1400A3127C96FCC007C006C005C004C003C063
:101D240002E50D24FBF8E6C0E008E6C0E008E6C0E2
:101D3400E08D828E838FF0122175158115811581B6
:101D4400D002D003D004D005D006D00774062DFDF0
:101D540074003EFE74032DFD74003EFE8D828E835E
:101D64008FF0EA12796BA3EB12796BA3EC12796B07
:101D74007F01021D7B7F008F82D00D22AD82AE8356
:101D8400AFF0C0E0C0A8C2AF74242DFD74003EFEC5
:101D94008D828E838FF0127C96FDD0E053E080E537
:101DA400E042A8D0E08D8222AD82AE83AFF0C0E0E5
:101DB400C0A8C2AF74252DFA74003EFB8F048A823A
:101DC4008B838CF0127C96FA74242DFD74003EFEF5
:101DD4008D828E838FF0127C96FDEAC39DFAD0E04B
:101DE40053E080E5E042A8D0E08A8222AD82AE834F
:101DF400AFF074242DFD74003EFE8D828E838FF02F
:101E0400127C96FD8D8222AD82AE83AFF08D828EE0
:101E1400838FF01274F322C00D85810DC082C083BC
:101E2400C0F0E581240AF581A80D08742426FA740B
:101E3400000836FB0886048A828B838CF0E50D2427
:101E44000DF8127C96F6A80D08E50D2407F9742602
:101E540026F77400083609F708E609F7E50D2407A4
:101E6400F886820886830886F0127C96FEEE70035C
:101E740002215AE50D24FAF8E66003021FD7C002D6
:101E8400C003C0048E047D00A80D08E50D240AF9E2
:101E9400740326F77400083609F708E609F7E50D18
:101EA400240AF886820886830886F0127C96FAA3B0
:101EB400127C96FBA3127C96FFC004C003C002C030
:101EC40004C005E50D24FBF8E6C0E008E6C0E00820
:101ED400E6C0E08A828B838FF0127A7DE58124FB51
:101EE400F581D002D003D004E50D240AF8868208D7
:101EF40086830886F0127C96FCA3127C96FDA312BE
:101F04007C96FFE50D2407F886820886830886F010
:101F1400127C96FBE50D2404F8EB2CF674003D08C6
:101F2400F608A607E50D240AF88682088683088643
:101F3400F0E50D2404F9E712796BA309E712796B34
:101F4400A309E712796BA80D08740626FA74000831
:101F540036FB0886078A828B838FF0127C96FAA35D
:101F6400127C96FBA3127C96FFE50D2404F8C002B4
:101F7400C003C00786820886830886F012003115E4
:101F84008115811581D004D003D002500302215A57
:101F9400C002C003C004A80D088682088683088690
:101FA400F0127C96FCA3127C96FDA3127C96FFE5AE
:101FB4000D240AF886820886830886F0EC12796B71
:101FC400A3ED12796BA3EF12796BD004D003D00286
:101FD40002215AC002C003C0047F00A80D08E50D09
:101FE4002404F9740626F77400083609F708E6098C
:101FF400F7E50D2404F8E50D240AF9740326F774B3
:1020040000083609F708E609F7E50D240AF8868280
:102014000886830886F0127C96FBA3127C96FCA3A8
:10202400127C96FDC004C003C002C006C007E50DC3
:1020340024FBF8E6C0E008E6C0E008E6C0E08B82D6
:102044008C838DF0127A7DE58124FBF581D002D05A
:1020540003D004E50D240AF886820886830886F0F6
:10206400127C96FDA3127C96FEA3127C96FFE50DCE
:102074002407F886820886830886F0127C96FC7B07
:1020840000EDC39CFDEE9BFEE50D240AF886820854
:1020940086830886F0ED12796BA3EE12796BA3EFB9
:1020A40012796BA80D0886820886830886F0127C54
:1020B40096FAA3127C96FBA3127C96FCC002C00382
:1020C400C0048D828E838FF0120031158115811525
:1020D40081D004D003D002400302213CC002C003DB
:1020E400C004E50D2404F886820886830886F0126D
:1020F4007C96FDA3127C96FEA3127C96FFE50D242C
:1021040007F886820886830886F0127C96FC7B009A
:10211400EDC39CFDEE9BFEE50D240AF8868208863D
:10212400830886F0ED12796BA3EE12796BA3EF129C
:10213400796BD004D003D002E50D24FAF8B602027C
:10214400800302215AE50D240DF8E6700302215A9A
:10215400E50D240DF816E50D240DF8E604FF8A823A
:102164008B838CF0EF12796B758200850D81D00D15
:1021740022C00D85810DC082C083C0F0E581240496
:10218400F581A80D08742626FA74000836FB088623
:10219400048A828B838CF0E50D2407F8127C96F672
:1021A400E50D2407F8E670030222C6C002C003C08E
:1021B40004A80D08740626FA74000836FB08860481
:1021C400E50D2404F874032AF674003B08F608A607
:1021D40004E50D2404F886820886830886F0127CC0
:1021E40096FDA3127C96FEA3127C96FFE50D2407B0
:1021F400F8E62DFD74003EFEE50D2404F886820801
:1022040086830886F0ED12796BA3EE12796BA3EF47
:1022140012796B8A828B838CF0127C96FAA3127CDF
:1022240096FBA3127C96FCC002C003C0048D828E70
:10223400838FF0120031158115811581D004D003EC
:10224400D002500302227FA80D08868208868308E4
:1022540086F0127C96FDA3127C96FEA3127C96FF58
:10226400E50D2404F886820886830886F0ED127949
:102274006BA3EE12796BA3EF12796B8A828B838C3A
:10228400F0127C96FA7F00E50D2404F88682088615
:10229400830886F0127C96FCA3127C96FDA3127C24
:1022A40096FEC002C007C004C005C006E50D24FBAD
:1022B400F886820886830886F0127A7DE58124FBFD
:1022C400F581850D81D00D22C00D85810DE5812418
:1022D40007F581C8E50D2405C8A68208A68308A6CB
:1022E400F0C0E0C0A8C2AFE50D2405F8742826FAB2
:1022F40074000836FB0886048A828B838CF0E50D13
:102304002404F8127C96F6E50D2405F8A90D097449
:102314001826F77400083609F708E609F7E50D24CE
:1023240004F8C37400648086F063F08095F0400381
:1023340002238FA80D0886820886830886F0127C03
:1023440096700302238FE50D2405F8741826FD7496
:10235400000836FE0886078D828E838FF0C004C085
:1023640003C00212408EE582D002D003D004700371
:10237400022386C004C003C002124FD9D002D00386
:10238400D004E50D2404F8160223218A828B838C61
:10239400F074FF12796BD0E053E080E5E042A8D0FE
:1023A400E0C0E0C0A8C2AFE50D2405F8742726FDFF
:1023B40074000836FE0886078D828E838FF0127CA7
:1023C40096FCE50D2405F8A90D09740C26F7740094
:1023D400083609F708E609F7C3740064808CF063D3
:1023E400F08095F04003022454A80D0886820886E4
:1023F400830886F0127C967003022454C005C0063C
:10240400C007E50D2405F8740C26FA74000836FBA1
:102414000886078A828B838FF0C007C006C005C078
:102424000412408EE582D004D005D006D007D00730
:10243400D006D0057003022450C007C006C005C0F2
:1024440004124FD9D004D005D006D0071C0223DCD7
:102454008D828E838FF074FF12796BD0E053E0800D
:10246400E5E042A8D0E0850D81D00D22AD82AE8397
:10247400AFF0C0E0C0A8C2AF74242DFD74003EFECE
:102484008D828E838FF0127C9660030224977F01E5
:102494000224997F00D0E053E080E5E042A8D0E038
:1024A4008F8222AD82AE83AFF074242DFD74003E82
:1024B400FE8D828E838FF0127C9660030224C87F87
:1024C400010224CA7F008F8222AD82AE83AFF0C0A6
:1024D400E0C0A8C2AF74242DFA74003EFB8F048AB6
:1024E400828B838CF0127C96FA74252DFD74003E49
:1024F400FE8D828E838FF0127C96FDEAB5050280F4
:102504000302250D7F0102250F7F00D0E053E080F8
:10251400E5E042A8D0E08F8222AD82AE83AFF074B2
:10252400242DFA74003EFB8F048A828B838CF01274
:102534007C96FA74252DFD74003EFE8D828E838F69
:10254400F0127C96FDEAB5050280030225577F014F
:102554000225597F008F8222C00D85810D058105DA
:10256400810581AE82AF83758233758300C007C055
:1025740006127433AB82AC83ADF0D006D007A80D3D
:1025840008A60308A60408A605A80D08E6084670D0
:1025940003022614C006C007A80D08742026FA7486
:1025A400000836FE088607E50D24F9F88604088637
:1025B400058C828D83C007C006C002127433AB82BF
:1025C400AC83ADF0D002D006D0078A828E838FF020
:1025D400EB12796BA3EC12796BA3ED12796BD00734
:1025E400D006EB4C6003022614A80D088603088667
:1025F400040886058B828C838DF0C007C006127494
:10260400F3D006D007A80D087400F608F608760083
:10261400A80D08E6084670030226A3E50D24F9F880
:1026240086020886037C007D007400C0E0C0E0C020
:10263400E0A80D08E6C0E008E6C0E008E6C0E0E572
:102644000D24F2F8E6C0E008E6C0E008E6C0E0E5E4
:102654000D24F5F8E6C0E0E50D24F6F8E6C0E00840
:10266400E6C0E008E6C0E0C002C003C004C005E55F
:102674000D24FBF8E6C0E008E6C0E008E6C0E08E02
:10268400828F831226ADE58124ECF581A80D08869E
:10269400820886830886F0122A027F010226A57F1B
:1026A400FF8F82850D81D00D22C00D85810DC082E2
:1026B400C083E581240CF581E50D24EDF8E50D24B6
:1026C40009F9E6F708E609F708E609F7E50D24092C
:1026D400F8742026FA74000836FE0886078A828E6B
:1026E400838FF0E50D240CF8127C96F6A3127C96E9
:1026F40008F6A3127C9608F6E50D240CF8E50D24E3
:1027040003F9E6F708E609F708E609F7E50D2409F1
:10271400F8E50D2406F9742B26F77400083609F73A
:1027240008E609F7E50D24F7F8E624FFFA08E6348D
:10273400FFFE08E634FFFD08E634FFFFE50D240C38
:10274400F8EA26FAEE0836FE088605E50D2406F8B2
:1027540086820886830886F0EA12796BA3EE1279E2
:102764006BA3ED12796BE50D24FBF8E608467003C4
:10277400022807E50D2409F8742326FD74000836A1
:10278400FE0886077B00E50D2406F8EB2DF67400A1
:102794003E08F608A607C005C006C007E50D24FBE1
:1027A400F8EB26FD74000836FE0886078D828E83BA
:1027B4008FF0127C96FCE50D2406F8868208868349
:1027C4000886F0EC12796B8D828E838FF0127C96E2
:1027D400D007D006D00570030227E80BBB080050D1
:1027E4000302278AE50D2409F8742A26FD740008DB
:1027F40036FE0886078D828E838FF0740012796B03
:10280400022823E50D2409F8742326FD74000836F4
:10281400FE0886078D828E838FF0740012796BE533
:102824000D24F3F8B604005003022837E50D24F311
:10283400F87603E50D2409F8741F26FD74000836A4
:10284400FE0886078D828E838FF0E50D24F3F8E66B
:1028540012796BE50D2409F8740326FD740008361B
:10286400FE0886078D828E838FF0126E99E50D2403
:1028740009F8741126FD74000836FE0886078D8257
:102884008E838FF0126E99E50D2409F8740B26FDE2
:1028940074000836FE088607E50D24EDF886020864
:1028A40086030886048D828E838FF0EA12796BA3E7
:1028B400EB12796BA3EC12796BE50D2409F8E50DA5
:1028C4002406F9741126F77400083609F708E60996
:1028D400F7E50D24F3F886077E007404C39FFF74A4
:1028E400009EFEE50D2406F886820886830886F09D
:1028F400EF12796BA3EE12796BE50D2409F87419C4
:1029040026FD74000836FE0886078D828E838FF0BC
:10291400EA12796BA3EB12796BA3EC12796BE50DD8
:102924002409F8742E26FD74000836FE0886077400
:1029340004C0E07400C0E0C0E08D828E838FF0128A
:102944007B10158115811581E50D2409F874322653
:10295400FD74000836FE0886077401C0E07400C0E8
:10296400E0C0E08D828E838FF0127B10158115817B
:102974001581E50D24F4F8E6C0E008E6C0E008E6B9
:10298400C0E0A80D08E6C0E008E6C0E0E50D2403B9
:10299400F886820886830886F0127513AF82AE83A8
:1029A400ADF0E58124FBF581E50D2409F886820864
:1029B40086830886F0EF12796BA3EE12796BA3ED90
:1029C40012796BE50D24F0F8E6084670030229FC41
:1029D400E50D24F0F886050886060886078D828EA4
:1029E400838FF0E50D2409F8E612796BA308E6124B
:1029F400796BA308E612796B850D81D00D22C00D89
:102A040085810DC082C083C0F0E581240CF581C0AE
:102A1400E0C0A8C2AF900C83E004F0900C7FE0FA11
:102A2400A3E0FBA3E0FCEA4B6003022A54A80D08D0
:102A3400900C7FE6F008E6A3F008E6A3F0900C8380
:102A4400E0FCBC01028003022AAB124FEA022AAB6B
:102A5400900C87E06003022AAB900C7FE0FAA3E0BD
:102A6400FBA3E0FC741F2AFA74003BFB8A828B836D
:102A74008CF0127C96FAA80D08741F26FB740008CB
:102A840036FC0886078B828C838FF0127C96FBC3FE
:102A9400EB9A5003022AABA80D08900C7FE6F008CD
:102AA400E6A3F008E6A3F0900C8CE02401F0A80D56
:102AB40008E50D2404F9741F26F77400083609F795
:102AC40008E609F7E50D2404F8868208868308865B
:102AD400F0127C96FC900C86E0FBC3EB9C40030256
:102AE4002AEB900C86ECF0E50D2404F88682088627
:102AF400830886F0127C96FCEC75F00CA42416FB7B
:102B0400740035F0FC8B828C83A3E50D240DF8E072
:102B1400F6A3E008F6A3E008F6A80D08740326FA65
:102B240074000836FB08860474022AFD74003BFE18
:102B34008C078D828E838FF0E50D240DF8E61279D3
:102B44006BA308E612796BA308E612796BE50D24F2
:102B54000AF874052AF674003B08F608A604E50D85
:102B6400240DF8E50D2407F9740526F774000836DA
:102B740009F708E609F7E50D2407F8868208868335
:102B84000886F0127C96FDA3127C96FEA3127C9616
:102B9400FFE50D240AF886820886830886F0ED1284
:102BA400796BA3EE12796BA3EF12796BE50D240711
:102BB400F886820886830886F0127C96FDA3127C30
:102BC40096FEA3127C96FF74022DFD74003EFE8DCA
:102BD400828E838FF0EA12796BA3EB12796BA3ECEC
:102BE40012796BE50D2407F886820886830886F03F
:102BF400EA12796BA3EB12796BA3EC12796B740B69
:102C04002AFA74003BFBE50D2404F88682088683C7
:102C14000886F0127C96FFEF75F00CA42416FE745F
:102C24000035F0FF7D008A828B838CF0EE12796B85
:102C3400A3EF12796BA3ED12796BE50D2404F886EA
:102C4400820886830886F0127C96FFEF75F00CA448
:102C54002416FE740035F0FF8E828F83E0FD0D8E06
:102C6400828F83EDF0D0E053E080E5E042A8D0E02D
:102C7400900C87E07003022C85900C7FE0A3E0A306
:102C8400E0850D81D00D22C00D85810D0581058162
:102C94000581AD82AE83AFF0C0E0C0A8C2AFED4EF7
:102CA4006003022CB7900C7FE0FAA3E0FBA3E0FCE6
:102CB400022CBD8D028E038F04A80D08A60208A65F
:102CC4000308A604A80D08740326FA74000836FB4A
:102CD4000886048A828B838CF012722FA80D0874E4
:102CE4001126FA74000836FB088604A80D08741C23
:102CF40026FD74000836FE0886078D828E838FF0C9
:102D0400127C96FDA3127C96FEA3127C96FFED4ED8
:102D14007003022D228A828B838CF012722F900C06
:102D24008CE02401F0900C7FE0FDA3E0FEA3E0FF23
:102D3400A80D08C005C006C00786820886830886D9
:102D4400F012003115811581158170028003022D66
:102D540086A80D08740326FD74000836FE0886074D
:102D6400C005C006C00775827075830075F0001237
:102D74006EBB158115811581900C82E02401F0024F
:102D84002D8F900C83E014F012511AD0E053E080A0
:102D9400E5E042A8D0E0900C7FE0FDA3E0FEA3E0D4
:102DA400FFA80D08C005C006C007868208868308F0
:102DB40086F01200311581158115817003022DD220
:102DC400A80D0886820886830886F01250D7900CD6
:102DD40087E07003022E0A900C7FE0FDA3E0FEA3BF
:102DE400E0FFA80D08C005C006C0078682088683D8
:102DF4000886F01200311581158115817002800357
:102E0400022E0A127785850D81D00D22AE82AF8302
:102E14007D00EE4F7003022E3CC007C006122EB494
:102E2400D006D0077400C0E08E828F83126C8615A2
:102E340081122EBCAF828F05ED6003022E451277FE
:102E44008522748FC0E0740CC0E07400C0E0C0E060
:102E5400C0E0C0E0C0E074A7C0E07400C0E0748AC1
:102E6400C0E0747DC0E07480C0E07582E075834F7B
:102E740012255CAF82E58124F4F581BF0102800351
:102E8400022EA2C2AF900C8D74FFF0A3F0900C87B9
:102E94007401F0900C847400F0A3F012770A907D12
:102EA40089E49322C2AF900C877400F012778422D5
:102EB400900C92E02401F022C00D85810DE581245F
:102EC40015F581E50D2410F87400F608F60876006F
:102ED400C0E0C0A8C2AF900C92E014F0E06003021E
:102EE400351E900C83E0700302351E900064E07080
:102EF400030234C790006AE0FAA3E0FBA3E0FC7489
:102F0400082AFA74003BFB8A828B838CF0127C962D
:102F1400FAA3127C96FBA3127C96FCE50D2410F810
:102F2400A60208A60308A604E50D2410F8741126C9
:102F3400FA74000836FB088604E50D2410F8741CA6
:102F440026FD74000836FE0886078D828E838FF076
:102F5400E50D2413F8127C96F6A3127C9608F6A3CA
:102F6400127C9608F6E50D2410F8A90D09741326B1
:102F7400F77400083609F708E609F7A80D088682F1
:102F84000886830886F0127C96FDA3127C96FEA325
:102F9400127C96FFE50D240DF874052DF674003EA1
:102FA40008F608A607E50D2410F8E50D2404F974C5
:102FB4001626F77400083609F708E609F7E50D2424
:102FC40004F886820886830886F0127C96FDA31294
:102FD4007C96FEA3127C96FFE50D240DF8868208EC
:102FE40086830886F0ED12796BA3EE12796BA3EF5A
:102FF40012796BE50D2404F886820886830886F02E
:10300400127C96FDA3127C96FEA3127C96FFE50D1E
:10301400240DF874022DF674003E08F608A607A8DD
:103024000D0886820886830886F0127C96FDA3121A
:103034007C96FEA3127C96FFE50D240DF88682088B
:1030440086830886F0ED12796BA3EE12796BA3EFF9
:1030540012796BE50D2413F8E50D240DF97401269E
:10306400F77400083609F708E609F7E50D240DF8AA
:1030740086820886830886F0127C96FDA3127C96CD
:10308400FEA3127C96FFC002C003C0048D828E830F
:103094008FF01200311581158115817002800302B1
:1030A40030DCE50D2404F886820886830886F01255
:1030B4007C96FDA3127C96FEA3127C96FFE50D245C
:1030C4000DF886820886830886F0ED12796BA3EEEC
:1030D40012796BA3EF12796B740B2AFA74003BFB21
:1030E4008A828B838CF0740012796BA312796BA3A0
:1030F40012796BE50D2413F886820886830886F01E
:10310400127C96FF1FE50D2413F886820886830837
:1031140086F0EF12796BE50D2410F8740326FD7424
:10312400000836FE088607E50D240DF8740B2DF60D
:1031340074003E08F608A607E50D240DF8868208FB
:1031440086830886F0E50D2413F9127C96F7A31202
:103154007C9609F7A3127C9609F7E50D2404F8740C
:10316400022DF674003E08F608A607E50D2404F8BF
:1031740086820886830886F0127C96FAA3127C96CF
:10318400FBA3127C96FCE50D2407F874052AF6745B
:10319400003B08F608A604A80D0874052DF6740073
:1031A4003E08F608A607A80D0886820886830886C6
:1031B400F0127C96FAA3127C96FBA3127C96FCE593
:1031C4000D2407F886820886830886F0EA12796B54
:1031D400A3EB12796BA3EC12796BA80D0886820815
:1031E40086830886F0127C96FAA3127C96FBA312BF
:1031F4007C96FCE50D2407F874022AF674003B085B
:10320400F608A604E50D2404F88682088683088659
:10321400F0127C96FAA3127C96FBA3127C96FCE532
:103224000D2407F886820886830886F0EA12796BF3
:10323400A3EB12796BA3EC12796BE50D2413F8E57B
:103244000D2407F9740126F77400083609F708E617
:1032540009F7E50D2407F886820886830886F012AC
:103264007C96FAA3127C96FBA3127C96FCC005C044
:1032740006C0078A828B838CF01200311581158178
:103284001581700280030232C1A80D088682088667
:10329400830886F0127C96FAA3127C96FBA3127C18
:1032A40096FCE50D2407F886820886830886F0EAF2
:1032B40012796BA3EB12796BA3EC12796BC005C086
:1032C40006C007E50D240DF886820886830886F07B
:1032D400740012796BA312796BA312796BE50D2438
:1032E40013F886820886830886F0127C96FC1CE517
:1032F4000D2413F886820886830886F0EC12796B15
:10330400E50D2410F8E50D240AF9741F26F774005E
:10331400083609F708E609F7E50D240AF886820855
:1033240086830886F0127C96FC900C86E0FFC3EF3F
:103334009CD007D006D0054003023345900C86ECA0
:10334400F0E50D240AF886820886830886F0127C4C
:1033540096FCEC75F00CA42416FB740035F0FC8B81
:10336400828C83A3E0FAA3E0FBA3E0FCE50D240434
:10337400F886820886830886F0EA12796BA3EB123A
:10338400796BA3EC12796BE50D2407F874052AF622
:1033940074003B08F608A604E50D2407F8868208A5
:1033A40086830886F0127C96FAA3127C96FBA312FD
:1033B4007C96FCA80D0886820886830886F0EA12AB
:1033C400796BA3EB12796BA3EC12796BE50D2407EF
:1033D400F886820886830886F0127C96FAA3127C0B
:1033E40096FBA3127C96FC74022AFA74003BFB8AB7
:1033F400828B838CF0ED12796BA3EE12796BA3EFC1
:1034040012796BE50D2407F886820886830886F016
:10341400ED12796BA3EE12796BA3EF12796BE50DC4
:10342400240AF886820886830886F0127C96FFEFC9
:1034340075F00CA42416FE740035F0FF7D00E50D34
:10344400240DF886820886830886F0EE12796BA331
:10345400EF12796BA3ED12796BE50D240AF88682DD
:103464000886830886F0127C96FFEF75F00CA4247E
:1034740016FE740035F0FF8E828F83E0FD0D8E8280
:103484008F83EDF0E50D240AF8868208868308868A
:10349400F0127C96FF900C7FE0FCA3E0FDA3E0FE1D
:1034A400741F2CFC74003DFD8C828D838EF0127C85
:1034B40096FCC3EF9C5003022EEF900C8A7401F02B
:1034C400022EEFE50D2410F8E6084670030234D707
:1034D40012511A900C88E0FEA3E0FF8E048F05EED3
:1034E4004F700302351A8C068D07C007C0061235CB
:1034F400BEE582D006D0077003023506900C8A74AC
:1035040001F01EBEFF011FEE4F60030234EE900C6B
:10351400887400F0A3F0900C8AE0D0E053E080E5DA
:10352400E042A8D0E0758200850D81D00D22C0E074
:10353400C0A8C2AF900C84E0FEA3E0FFD0E053E04B
:1035440080E5E042A8D0E08E828F8322900C84E054
:10355400FEA3E0FF8E828F8322900C83E0FF8F8294
:1035640022AD82AE83AFF0ED4E6003023580900C45
:103574007FE0FAA3E0FBA3E0FC0235868D028E0314
:103584008F0474232AFA74003BFB8A828B838CF0A9
:1035940022AE82AF83C007C006122EB4D006D00775
:1035A400900C88E0FCA3E0FD900C88EE2CF0EF3D3D
:1035B400A3F0122EBCAF828F8222C00D85810DE54F
:1035C400812417F581900C92E06003023CCA900CB0
:1035D40084E0FEA3E0FFE50D2413F874012EF674D5
:1035E400003F08F6E50D2413F8900C84E6F008E695
:1035F400A3F0E50D2413F8E608466003023638907C
:10360400005EE0FBA3E0FCA3E0FD900061E0FAA310
:10361400E0FEA3E0FF90005EEAF0EEA3F0EFA3F07B
:10362400900061EBF0ECA3F0EDA3F0900C8BE004C0
:10363400F012511A900C8DE0FCA3E0FDE50D24136B
:10364400F8C3E69C08E69D5003023CD690005EE079
:10365400FBA3E0FCA3E0FD8B828C838DF0127C96AF
:103664006003023674900C8D74FFF0A3F0023CD614
:1036740090005EE0FBA3E0FCA3E0FD74042BFB746C
:10368400003CFC74022BFB74003CFC8B828C838D0D
:10369400F0127C96FBA3127C96FCA3127C96FD741C
:1036A400082BFB74003CFC8B828C838DF0127C967F
:1036B400FBA3127C96FCA3127C96FDE50D2410F866
:1036C400A60308A60408A605E50D2410F87403262D
:1036D400FE74000836FA0886078E828A838FF012F9
:1036E4007C96FEA3127C96FFE50D2413F8C3E69E98
:1036F40008E69F4003023707900C8DEEF0EFA3F02D
:10370400023CD6E50D2410F8740326FA740008363A
:10371400FE088607E50D2410F8740E26FB740008D5
:1037240036FC0886058B828C838DF0E50D2415F814
:10373400127C96F6A3127C9608F6A3127C9608F6E1
:10374400E50D2410F8E50D2407F9740526F7740037
:10375400083609F708E609F7E50D2407F886820814
:1037640086830886F0127C96FBA3127C96FCA31237
:103774007C96FDE50D240DF874052BF674003C08C9
:10378400F608A605E50D2410F8E50D240AF97408D9
:1037940026F77400083609F708E609F7E50D240A48
:1037A400F886820886830886F0127C96FBA3127C36
:1037B40096FCA3127C96FDE50D240DF886820886FE
:1037C400830886F0EB12796BA3EC12796BA3ED12EC
:1037D400796BE50D240AF886820886830886F01240
:1037E4007C96FBA3127C96FCA3127C96FDE50D242B
:1037F4000DF874022BF674003C08F608A605E50DD6
:103804002407F886820886830886F0127C96FBA338
:10381400127C96FCA3127C96FDE50D240DF886829D
:103824000886830886F0EB12796BA3EC12796BA3FC
:10383400ED12796BE50D2415F8E50D240DF97401ED
:1038440026F77400083609F708E609F7E50D240D94
:10385400F886820886830886F0127C96FBA3127C85
:1038640096FCA3127C96FDC002C006C0078B828C16
:10387400838DF0120031158115811581700280034A
:103884000238BDE50D240AF886820886830886F08E
:10389400127C96FBA3127C96FCA3127C96FDE50D8C
:1038A400240DF886820886830886F0EB12796BA3D0
:1038B400EC12796BA3ED12796BE50D2404F8740B0B
:1038C4002AF674003E08F608A607E50D2404F886D7
:1038D400820886830886F0740012796BA312796BD0
:1038E400A312796BC002C006C007E50D2415F88643
:1038F400820886830886F0127C96FF1FE50D241546
:10390400F886820886830886F0EF12796BE50D2429
:1039140010F8E50D240DF9741126F7740008360922
:10392400F708E609F7E50D240DF8E50D240AF97406
:103934000B26F77400083609F708E609F7E50D24A5
:103944000AF886820886830886F0127C96FBA31206
:103954007C96FCA3127C96FDD007D006D002EB4CDB
:103964007003023B16C002C006C007E50D2415F81B
:10397400A60308A60408A605E50D240DF87402267E
:10398400FA74000836FE0886078A828E838FF01246
:103994007C96FBA3127C96FCA3127C96FDA80D08D2
:1039A40074052BF674003C08F608A605E50D240DF5
:1039B400F8E50D2407F9740526F77400083609F7AD
:1039C40008E609F7E50D2407F88682088683088649
:1039D400F0127C96FBA3127C96FCA3127C96FDA8A5
:1039E4000D0886820886830886F0EB12796BA3ECB7
:1039F40012796BA3ED12796BE50D2407F886820822
:103A040086830886F0127C96FBA3127C96FCA31294
:103A14007C96FD74022BFB74003CFC8A828E838F9F
:103A2400F0127C96FAA3127C96FEA3127C96FF8B6E
:103A3400828C838DF0EA12796BA3EE12796BA3EF7B
:103A440012796BE50D2415F8A90D09740126F77494
:103A540000083609F708E609F7A80D0886820886E3
:103A6400830886F0127C96FDA3127C96FEA3127C3A
:103A740096FFE50D240DF8C005C006C00786820830
:103A840086830886F0120031158115811581700234
:103A94008009D007D006D002023AD9D007D006D088
:103AA40002E50D2407F886820886830886F0127CD6
:103AB40096FBA3127C96FCA3127C96FDA80D0886A7
:103AC400820886830886F0EB12796BA3EC12796B7B
:103AD400A3ED12796BE50D240AF886820886830823
:103AE40086F0740012796BA312796BA312796BE5DB
:103AF4000D2415F886820886830886F0127C96FDCC
:103B04001DE50D2415F886820886830886F0ED12DB
:103B1400796BC002C006C007E50D2410F8E50D243A
:103B24000DF9741F26F77400083609F708E609F73B
:103B3400E50D240DF886820886830886F0127C96AB
:103B4400FD900C86E0FFC3EF9DD007D006D0024065
:103B540003023B5D900C86EDF0E50D240DF88682A2
:103B64000886830886F0127C96FDED75F00CA4247B
:103B740016FC740035F0FD8C828D83A3E50D2415AD
:103B8400F8E0F6A3E008F6A3E008F674022AFB7452
:103B9400003EFC8F058B828C838DF0E50D2415F897
:103BA400E612796BA308E612796BA308E612796B27
:103BB400A80D0874052AF674003E08F608A607E561
:103BC4000D2415F8E50D240AF9740526F774000888
:103BD4003609F708E609F7E50D240AF8868208860F
:103BE400830886F0127C96FBA3127C96FCA3127CBD
:103BF40096FDA80D0886820886830886F0EB127964
:103C04006BA3EC12796BA3ED12796BE50D240AF822
:103C140086820886830886F0127C96FBA3127C9623
:103C2400FCA3127C96FD74022BFB74003CFC8B827B
:103C34008C838DF0EA12796BA3EE12796BA3EF12E9
:103C4400796BE50D240AF886820886830886F0EAF3
:103C540012796BA3EE12796BA3EF12796BE50D2445
:103C64000DF886820886830886F0127C96FFEF752D
:103C7400F00CA42416FE740035F0FF7D00E50D243D
:103C840004F886820886830886F0EE12796BA3EF27
:103C940012796BA3ED12796BE50D240DF886820879
:103CA40086830886F0127C96FFEF75F00CA4241628
:103CB400FE740035F0FF8E828F83E0FD0D8E828FBF
:103CC40083EDF0023650900C88E02401F0A3E03438
:103CD40000F0758200850D81D00D22C00D85810D07
:103CE400E581240AF581900C92E07003023CFC907B
:103CF4000C8A7401F0023E6C900C8A7400F0900CF3
:103D040086E0FFEF75F00CA4FDAEF0ED2416FBEE9B
:103D14003400FC8B828C83E06003023D251F023D4E
:103D240007E50D2407F8A607ED2416FDEE3400FE82
:103D3400E50D2408F8A60508A606087600E50D2476
:103D440008F8740126FA74000836FB0886078A828C
:103D54008B838FF0127C96FCA3127C96FDA3127CBD
:103D640096FE74022CFC74003DFD8C828D838EF0D3
:103D7400127C96FCA3127C96FDA3127C96FE8A828A
:103D84008B838FF0EC12796BA3ED12796BA3EE1297
:103D9400796B8A828B838FF0E50D2404F8127C966C
:103DA400F6A3127C9608F6A3127C9608F6A80D08D2
:103DB400A60408A60508A606E50D2408F87404263A
:103DC400FC74000836FD088606A80D08C004C0056A
:103DD400C00686820886830886F012003115811594
:103DE40081158170028003023E27E50D2404F874D6
:103DF4000226FC74000836FD0886068C828D838EAC
:103E0400F0127C96FCA3127C96FDA3127C96FE8A8B
:103E1400828B838FF0EC12796BA3ED12796BA3EE96
:103E240012796B8A828B838FF0127C96FAA3127CB0
:103E340096FBA3127C96FF74082AFA74003BFB8A53
:103E4400828B838FF0127C96FAA3127C96FBA312CA
:103E54007C96FF900C7FEAF0EBA3F0EFA3F0E50D66
:103E64002407F8900C86E6F0850D81D00D22C00D54
:103E740085810DAD82AE83AFF0900C7FE0FAA3E0B4
:103E8400FBA3E0FC74112AFA74003BFBC002C003DC
:103E9400C0048D828E838FF012701F1581158115D9
:103EA400817401C0E0E50D24FCF886820886831243
:103EB4006C861581D00D22C00D85810DC082C08312
:103EC400C0F0058105810581900C7FE0FAA3E0FB39
:103ED400A3E0FC74112AFA74003BFBE50D24FCF802
:103EE40086060886074307808A828B838CF0EE124D
:103EF400796BA3EF12796BA80D08740126FD740089
:103F04000836FE0886078D828E838FF0127C96FD1C
:103F1400A3127C96FEA3127C96FF900C7FE0FAA37A
:103F2400E0FBA3E0FC74112AFA74003BFB74022A40
:103F3400FA74003BFB8A828B838CF0ED12796BA3BD
:103F4400EE12796BA3EF12796B900C7FE0FAA3E089
:103F5400FBA3E0FC74112AFA74003BFBE50D240476
:103F6400F874052AF674003B08F608A60474052DB7
:103F7400FD74003EFE8D828E838FF0127C96FAA330
:103F8400127C96FBA3127C96FCE50D2404F8868231
:103F94000886830886F0EA12796BA3EB12796BA387
:103FA400EC12796B8D828E838FF0127C96FAA312B9
:103FB4007C96FBA3127C96FCE50D2404F874022A7B
:103FC400F674003B08F608A604900C7FE0FAA3E020
:103FD400FBA3E0FC74112AFA74003BFBE50D2404F6
:103FE400F886820886830886F0EA12796BA3EB12BE
:103FF400796BA3EC12796B900C7FE0FAA3E0FBA33E
:10400400E0FC74112AFA74003BFB8D828E838FF0DE
:10401400EA12796BA3EB12796BA3EC12796B900C17
:104024007FE0FDA3E0FEA3E0FF74112DFD74003ECC
:10403400FE740B2DFD74003EFE8D828E838FF0A8DE
:104044000D08E612796BA308E612796BA308E61251
:10405400796BA80D0886820886830886F0127C9600
:10406400FF0FA80D0886820886830886F0EF127970
:104074006B7401C0E0E50D24FAF886820886831289
:104084006C861581850D81D00D22C00D85810DE5CD
:10409400812419F581AD82AE83AFF074042DFD74D3
:1040A400003EFE74022DFD74003EFE8D828E838FD1
:1040B400F0127C96FDA3127C96FEA3127C96FF74EC
:1040C400082DFD74003EFE8D828E838FF0127C9647
:1040D400FDA3127C96FEA3127C96FFE50D2414F832
:1040E400A60508A60608A607E50D2414F8741126EB
:1040F400FA74000836FB088604E50D2414F8741CD1
:1041040026FD74000836FE0886078D828E838FF0A4
:10411400E50D2417F8127C96F6A3127C9608F6A3F4
:10412400127C9608F6E50D2414F8E50D240AF974BA
:104134001326F77400083609F708E609F7E50D2495
:104144000AF886820886830886F0127C96FDA312FC
:104154007C96FEA3127C96FFE50D2407F874052DCA
:10416400F674003E08F608A607E50D2414F8A90D18
:1041740009741626F77400083609F708E609F7A843
:104184000D0886820886830886F0127C96FDA312A9
:104194007C96FEA3127C96FFE50D2407F886820820
:1041A40086830886F0ED12796BA3EE12796BA3EF88
:1041B40012796BA80D0886820886830886F0127C23
:1041C40096FDA3127C96FEA3127C96FFE50D2407B0
:1041D400F874022DF674003E08F608A607E50D24CF
:1041E4000AF886820886830886F0127C96FDA3125C
:1041F4007C96FEA3127C96FFE50D2407F8868208C0
:1042040086830886F0ED12796BA3EE12796BA3EF27
:1042140012796BE50D2417F8E50D2407F9740126CE
:10422400F77400083609F708E609F7E50D2407F8DE
:1042340086820886830886F0127C96FDA3127C96FB
:10424400FEA3127C96FFC002C003C0048D828E833D
:104254008FF01200311581158115817002800302DF
:10426400429AA80D0886820886830886F0127C96F6
:10427400FDA3127C96FEA3127C96FFE50D2407F89D
:1042840086820886830886F0ED12796BA3EE127994
:104294006BA3EF12796BE50D2410F8740B2AF674F6
:1042A400003B08F608A604E50D2410F8868208866B
:1042B400830886F0740012796BA312796BA31279C8
:1042C4006BC002C003C004E50D2417F8868208867B
:1042D400830886F0127C96FC1CE50D2417F8868270
:1042E4000886830886F0EC12796B900C92E0D00477
:1042F400D003D00260030246E2E50D2414F87403EF
:1043040026FC74000836FB088602A80D08740B2CE2
:10431400F674003B08F608A602A80D0886820886F3
:10432400830886F0127C96FFA3127C96FEA3127C6F
:1043340096FDE50D240AF874022CF674003B08F689
:1043440008A602E50D240AF886820886830886F00A
:10435400E50D2404F9127C96F7A3127C9609F7A3C1
:10436400127C9609F7E50D2404F8740526F674000A
:104374000836F6E50D240DF874052CF674003B0898
:10438400F608A602E50D240DF886820886830886C1
:10439400F0E50D2410F9127C96F7A3127C9609F728
:1043A400A3127C9609F7E50D2404F8868208868317
:1043B4000886F0E50D2410F9E712796BA309E712DA
:1043C400796BA309E712796BE50D240DF886820851
:1043D40086830886F0E50D2410F9127C96F7A31263
:1043E4007C9609F7A3127C9609F7E50D2410F8745E
:1043F4000226F674000836F6E50D240AF8868208CB
:1044040086830886F0E50D2404F9127C96F7A3123E
:104414007C9609F7A3127C9609F7E50D2410F8861B
:10442400820886830886F0E50D2404F9E712796B87
:10443400A309E712796BA309E712796BE50D241040
:10444400F874012FF674003E08F608A605E50D245D
:1044540010F886820886830886F0E50D2404F91294
:104464007C96F7A3127C9609F7A3127C9609F7E5CC
:104474000D2404F8C004C003C002868208868308A1
:1044840086F01200311581158115817002800302B6
:1044940044DAE50D240DF886820886830886F0E563
:1044A4000D2404F9127C96F7A3127C9609F7A31243
:1044B4007C9609F7E50D2410F88682088683088621
:1044C400F0E50D2404F9E712796BA309E712796B7F
:1044D400A309E712796BA80D0886820886830886EB
:1044E400F0740012796BA312796BA312796B8F822B
:1044F4008E838DF0E50D2410F8127C96F6E50D24DC
:1045040010F8E50D2410F9E614F78F828E838DF0F0
:10451400E50D2410F8E612796BE50D2414F8741FE8
:1045240026FF74000836FE0886058F828E838DF080
:10453400E50D2404F8127C96F6900C86E50D241300
:10454400F8E0F6E50D2404F8E50D2413F9C3E79625
:104554004003024563E50D2404F8900C86E6F08FD1
:10456400828E838DF0E50D2413F8127C96F6E50D0A
:104574002413F8E675F00CA4C8E50D2404C8241629
:10458400F6740035F008F6E50D2404F886820886F2
:1045940083A3E50D2417F8E0F6A3E008F6A3E008EA
:1045A400F6E50D240AF886820886830886F0E50D70
:1045B4002417F9E712796BA309E712796BA309E7CA
:1045C40012796BE50D2417F8E50D2404F97405261A
:1045D400F77400083609F708E609F7E50D2404F82E
:1045E40086820886830886F0E50D240AF9127C96F3
:1045F400F7A3127C9609F7A3127C9609F7E50D241C
:104604000DF886820886830886F0E50D240AF9E70A
:1046140012796BA309E712796BA309E712796BE5A9
:104624000D2404F886820886830886F0E50D240D9F
:10463400F9127C96F7A3127C9609F7A3127C9609CB
:10464400F7E50D240DF8740226F674000836F6E535
:104654000D240DF886820886830886F0EC12796BA7
:10466400A3EB12796BA3EA12796BE50D2404F886A7
:10467400820886830886F0EC12796BA3EB12796BBF
:10468400A3EA12796B8F828E838DF0127C96FCECF8
:1046940075F00CA42416FC740035F0FB7A00A80D08
:1046A4000886820886830886F0EC12796BA3EB12E5
:1046B400796BA3EA12796B8F828E838DF0127C96CC
:1046C400FFEF75F00CA42416FF740035F0FE8F8202
:1046D4008E83E0FD0D8F828E83EDF00247F3900010
:1046E40065E50D2417F8E0F6A3E008F6A3E008F664
:1046F40074022AFD74003BFE8C078D828E838FF03A
:10470400E50D2417F8E612796BA308E612796BA37A
:1047140008E612796BE50D240DF874052AF6740089
:104724003B08F608A604E50D2417F8E50D2404F962
:10473400740526F77400083609F708E609F7E50D4D
:104744002404F886820886830886F0127C96FDA3EA
:10475400127C96FEA3127C96FFE50D240DF886824A
:104764000886830886F0ED12796BA3EE12796BA3A9
:10477400EF12796BE50D2404F88682088683088697
:10478400F0127C96FDA3127C96FEA3127C96FF7415
:10479400022DFD74003EFE8D828E838FF0EA127925
:1047A4006BA3EB12796BA3EC12796BE50D2404F87F
:1047B40086820886830886F0EA12796BA3EB127965
:1047C4006BA3EC12796BE50D2410F88682088683BE
:1047D4000886F0746412796BA3740012796BA37465
:1047E4000012796B900064E0FF0F900064EFF0E535
:1047F4000D2414F8741F26FD74000836FE0886077D
:104804008D828E838FF0127C96FD900C7FE0FCA34A
:10481400E0FEA3E0FF741F2CFC74003EFE8C828E2D
:10482400838FF0127C96FCC3EC9D400302483D7FCD
:1048340001900C8AEFF002483F7F008F82850D8142
:10484400D00D22C00D85810DC082C083C0F0E581EA
:104854002415F581E50D24FCF88603088604430439
:1048640080A80D0886820886830886F0EB12796B8F
:10487400A3EC12796BA80D08740826FA74000836A4
:10488400FB0886048A828B838CF0127C96FAA3122E
:104894007C96FBA3127C96FCE50D2413F8A6020873
:1048A400A60308A604A80D08740B26FA740008369B
:1048B400FB0886048A828B838CF0E50D2416F8129B
:1048C4007C96F6A3127C9608F6A3127C9608F6A8AA
:1048D4000D08E50D240AF9740226F7740008360958
:1048E400F708E609F7E50D240AF8868208868308A6
:1048F40086F0127C96FDA3127C96FEA3127C96FF92
:10490400E50D2407F874052DF674003E08F608A694
:1049140007A80D08E50D2404F9740526F7740008AA
:104924003609F708E609F7E50D2404F886820886B7
:10493400830886F0127C96FDA3127C96FEA3127C5B
:1049440096FFE50D2407F886820886830886F0ED35
:1049540012796BA3EE12796BA3EF12796BE50D2438
:1049640004F886820886830886F0127C96FDA312DA
:104974007C96FEA3127C96FFE50D2407F874022DA5
:10498400F674003E08F608A607E50D240AF88682A8
:104994000886830886F0127C96FDA3127C96FEA3FB
:1049A400127C96FFE50D2407F88682088683088624
:1049B400F0ED12796BA3EE12796BA3EF12796BE52C
:1049C4000D2416F8E50D2407F9740126F774000880
:1049D4003609F708E609F7E50D2407F88682088604
:1049E400830886F0127C96FDA3127C96FEA3127CAB
:1049F40096FFA80D08C005C006C0078682088683F6
:104A04000886F0120031158115811581700280032A
:104A1400024A4DE50D2404F886820886830886F050
:104A2400127C96FDA3127C96FEA3127C96FFE50DE4
:104A34002407F886820886830886F0ED12796BA332
:104A4400EE12796BA3EF12796B8A828B838CF074EC
:104A54000012796BA312796BA312796BE50D2416FE
:104A6400F886820886830886F0127C96FF1FE50D7F
:104A74002416F886820886830886F0EF12796BE59F
:104A84000D2413F8740326FD74000836FE08860707
:104A9400E50D2407F8740B2DF674003E08F608A6FD
:104AA40007E50D2407F886820886830886F0E50D5D
:104AB4002416F9127C96F7A3127C9609F7A3127CAC
:104AC4009609F7E50D2404F874022DF674003E08E7
:104AD400F608A607E50D2404F8868208868308866E
:104AE400F0127C96FAA3127C96FBA3127C96FCE54A
:104AF4000D2410F874052AF674003B08F608A60481
:104B0400E50D240AF874052DF674003E08F608A68F
:104B140007E50D240AF886820886830886F0127C4D
:104B240096FAA3127C96FBA3127C96FCE50D241046
:104B3400F886820886830886F0EA12796BA3EB1262
:104B4400796BA3EC12796BE50D240AF8868208864A
:104B5400830886F0127C96FAA3127C96FBA3127C3F
:104B640096FCE50D2410F874022AF674003B08F64E
:104B740008A604E50D2404F886820886830886F0D6
:104B8400127C96FAA3127C96FBA3127C96FCE50D8C
:104B94002410F886820886830886F0EA12796BA3CB
:104BA400EB12796BA3EC12796BE50D2416F8E50D85
:104BB4002410F9740126F77400083609F708E60989
:104BC400F7E50D2410F886820886830886F0127CA7
:104BD40096FAA3127C96FBA3127C96FCC005C00631
:104BE400C0078A828B838CF01200311581158115E0
:104BF4008170028003024C32E50D240AF886820893
:104C040086830886F0127C96FAA3127C96FBA31284
:104C14007C96FCE50D2410F886820886830886F0CD
:104C2400EA12796BA3EB12796BA3EC12796BC005D2
:104C3400C006C007E50D2407F88682088683088627
:104C4400F0740012796BA312796BA312796BE50DE2
:104C54002416F886820886830886F0127C96FC1C4B
:104C6400E50D2416F886820886830886F0EC12790E
:104C74006BE50D2413F8E50D240DF9741F26F77464
:104C840000083609F708E609F7E50D240DF88682D1
:104C94000886830886F0127C96FC900C86E0FFC39D
:104CA400EF9CD007D006D0054003024CB6900C868A
:104CB400ECF0E50D240DF886820886830886F01250
:104CC4007C96FCEC75F00CA42416FB740035F0FC07
:104CD4008B828C83A3E0FAA3E0FBA3E0FCE50D2424
:104CE40004F886820886830886F0EA12796BA3EBBF
:104CF40012796BA3EC12796BE50D2410F874052A74
:104D0400F674003B08F608A604E50D2410F8868224
:104D14000886830886F0127C96FAA3127C96FBA37D
:104D2400127C96FCE50D240AF886820886830886A0
:104D3400F0EA12796BA3EB12796BA3EC12796BE5B1
:104D44000D2410F886820886830886F0127C96FA71
:104D5400A3127C96FBA3127C96FC74022AFA7400BC
:104D64003BFB8A828B838CF0ED12796BA3EE127974
:104D74006BA3EF12796BE50D2410F8868208868305
:104D84000886F0ED12796BA3EE12796BA3EF12791A
:104D94006BE50D240DF886820886830886F0127C64
:104DA40096FFEF75F00CA42416FE740035F0FF7D19
:104DB40000E50D2407F886820886830886F0EE1243
:104DC400796BA3EF12796BA3ED12796BE50D240DCA
:104DD400F886820886830886F0127C96FFEF75F0C9
:104DE4000CA42416FE740035F0FF8E828F83E0FD40
:104DF4000D8E828F83EDF0E50D240DF886820886F2
:104E0400830886F0127C96FF900C7FE0FCA3E0FD03
:104E1400A3E0FE741F2CFC74003DFD8C828D838EF8
:104E2400F0127C96FCC3EC9F4003024E37900C8A30
:104E34007401F0850D81D00D22AD82AE83AFF0C038
:104E4400E0C0A8C2AF900C8BE0FC8D828E838FF003
:104E5400EC12796B0DBD00010E900C84E0FBA3E015
:104E6400FC8D828E838FF0EB12796BA3EC12796B3D
:104E7400D0E053E080E5E042A8D0E022AD82AE83EA
:104E8400AFF0900C8BE0FC8D828E838FF0EC127966
:104E94006B0DBD00010E900C84E0FBA3E0FC8D8241
:104EA4008E838FF0EB12796BA3EC12796B22C00D19
:104EB40085810DC082C083C0F0E5812404F581C0E2
:104EC400E0C0A8C2AF900C84E0FBA3E0FCE50D2495
:104ED40006F8A60308A604A80D08740126FB7400AE
:104EE4000836FA0886048B828A838CF0127C96FB3F
:104EF400A3127C96FCE50D2406F8E6C39BFE08E6A7
:104F04009CFF8E02A80D0886820886830886F0120C
:104F14007C96FE900C8BE0FDEDB50603024F54E544
:104F24000D2406F8C3E69B08E69C5003024F547E0A
:104F340001E50D24FBF886030886040886058B82A8
:104F44008C838DF0740012796BA312796B024FC6B7
:104F5400E50D24FBF886030886040886058B828CFD
:104F6400838DF0E50D2404F8127C96F6A3127C964A
:104F740008F6E50D2404F8C3EA96EF089640030208
:104F84004FB5E50D2404F8E6C39AFA08E69FFF8BB3
:104F9400828C838DF0EA12796BA3EF12796BA80DE2
:104FA4000886820886830886F0124E807E00024FAF
:104FB400C68B828C838DF0740012796BA312796B8B
:104FC4007E01D0E053E080E5E042A8D0E08E828507
:104FD4000D81D00D22900C8A7401F02212505E12C1
:104FE4007785024FE0227F00EF75F00CA42416FDB4
:104FF400740035F0FE7C008D828E838CF0C0071225
:105004006DB2D0070FBF04005003024FEC75824607
:1050140075830075F000126DB27582527583007548
:10502400F000126DB275826475830075F000126D24
:10503400B275827075830075F000126DB290005ED7
:105044007446F07400A3F07400A3F09000617452ED
:10505400F07400A3F07400A3F022900C82E07003BB
:105064000250D6C0E0C0A8C2AF900076E0FDA3E035
:10507400FEA3E0FF74082DFD74003EFE8D828E8336
:105084008FF0127C96FDA3127C96FEA3127C96FFF1
:1050940074032DFA74003EFB8F048A828B838CF098
:1050A400C007C006C00512722FD005D006D00790E5
:1050B4000C83E014F0900C82E014F0D0E053E08014
:1050C400E5E042A8D0E08D828E838FF01250D702A3
:1050D400505E22AD82AE83AFF074202DFA74003E90
:1050E400FB8F048A828B838CF0127C96FAA3127C49
:1050F40096FBA3127C96FC8A828B838CF0C007C03B
:1051040006C0051274F3D005D006D0078D828E83B5
:105114008FF01274F32290005EE0FDA3E0FEA3E0A2
:10512400FF8D828E838FF0127C96600302513E9035
:105134000C8D74FFF0A3F002518490005EE0FDA397
:10514400E0FEA3E0FF74042DFD74003EFE74022D06
:10515400FD74003EFE8D828E838FF0127C96FDA33B
:10516400127C96FEA3127C96FF8D828E838FF012A2
:105174007C96FDA3127C96FE900C8DEDF0EEA3F0D0
:1051840022C00D85810D05810581900C7FE0FDA372
:10519400E0FEA3E0FF74112DFD74003EFE8D828EAF
:1051A400838FF0A80D08127C96F6A3127C9608F65D
:1051B400900C7FE0FBA3E0FCA3E0FF74112BFB74D5
:1051C400003CFC900C7FE0FAA3E0FDA3E0FE741F1A
:1051D4002AFA74003DFD8A828D838EF0127C96FA41
:1051E4007E007404C39AFA74009EFE8B828C838FB3
:1051F400F0EA12796BA3EE12796BA80D0886820887
:105204008683850D81D00D22C00D85810DC082E578
:10521400812407F581C0E0C0A8C2AF900C7FE0FCF8
:10522400A3E0FDA3E0FE742E2CFC74003DFDA80D4C
:1052340008E625E0FBEB25E0FBEB2CFC74003DFDD0
:105244008C828D838EF0127C96FCA3127C96FDA337
:10525400127C96FEA3127C96FAEC4D4E4A60030231
:1052640052B9900C7FE0FCA3E0FDA3E0FE74322C65
:10527400FC74003DFDA80D08E62CFC74003DFD8C7B
:10528400828D838EF0740112796BE50D24FBF8E6B0
:10529400084670030252B9C0037401C0E0E50D244E
:1052A400FBF88682088683126C861581D003C003BE
:1052B400127785D003D0E053E080E5E042A8D0E047
:1052C400C0E0C0A8C2AF900C7FE0FEA3E0FCA3E066
:1052D400FD742E2EFE74003CFCEB2EFE74003CFC90
:1052E4008E828C838DF0E50D2405F8127C96F6A34E
:1052F400127C9608F6A3127C9608F6A3127C9608F4
:10530400F6E50D2405F8E60846084608467003024B
:1053140053AEE50D24FDF8E67003025355900C7F5F
:10532400E0FDA3E0FEA3E0FF742E2DFD74003EFE1D
:10533400EB2DFD74003EFE8D828E838FF07400127F
:10534400796BA312796BA312796BA312796B025355
:10535400AE900C7FE0FCA3E0FDA3E0FE742E2CFCD9
:1053640074003DFDA80D0808EB2CF674003D08F60A
:1053740008A606E50D2405F8E624FFFA08E634FF3E
:10538400FB08E634FFFE08E634FFFFA80D08088694
:10539400820886830886F0EA12796BA3EB12796B94
:1053A400A3EE12796BA3EF12796B900C7FE0FDA34F
:1053B400E0FEA3E0FF74322DFD74003EFEA80D084C
:1053C400E62DFD74003EFE8D828E838FF0740012F4
:1053D400796BD0E053E080E5E042A8D0E0E50D240D
:1053E40005F886820886830886F008E6850D81D054
:1053F4000D22C00D85810DE581240FF581C8E50DD1
:10540400240FC8A682C0E0C0A8C2AF900C7FE0FC05
:10541400A3E0FDA3E0FE74322CFC74003DFDE50D19
:10542400240FF8E62CFC74003DFD8C828D838EF0F5
:10543400127C96FCBC020302553A900C7FE0FCA35C
:10544400E0FDA3E0FE742E2CFC74003DFDE50D246C
:105454000FF8E625E0FBEB25E0FBA80D08EB2CF6A6
:1054640074003D08F608A606900C7FE0FAA3E0FF5E
:10547400A3E0FE742E2AFA74003FFFEB2AFD7400A9
:105484003FFFE50D24FAF8E50D2407F9E6F4F708E3
:10549400E6F409F708E6F409F708E6F409F78D825B
:1054A4008F838EF0127C96FCA3127C96FBA3127C55
:1054B40096FEA3127C96FFE50D2407F8E652040835
:1054C400E6520308E6520608E65207A80D0886824B
:1054D4000886830886F0EC12796BA3EB12796BA330
:1054E400EE12796BA3EF12796B900C7FE0FDA3E0D1
:1054F400FEA3E0FF74322DFD74003EFEE50D240F83
:10550400F8E62DFD74003EFE8D828E838FF07401CB
:1055140012796BE50D24F1F8E60846700302553A5A
:105524007401C0E0E50D24F1F88682088683126CCC
:10553400861581127785D0E053E080E5E042A8D05B
:10554400E0C0E0C0A8C2AFE50D24F3F8E608467059
:10555400030255D0E50D24F3F8E50D2404F9E6F72C
:1055640008E609F708E609F7900C7FE0FAA3E0FBE8
:10557400A3E0FC742E2AFF74003BFE8C05E50D2489
:105584000FF8E625E0FCEC25E0FCEC2FFA74003E75
:10559400FB8D048A828B838CF0127C96FAA3127C96
:1055A40096FBA3127C96FCA3127C96FFE50D2404C3
:1055B400F886820886830886F0EA12796BA3EB12D8
:1055C400796BA3EC12796BA3EF12796B900C7FE0EB
:1055D400FDA3E0FEA3E0FF74322DFD74003EFEE562
:1055E4000D240FF8E62DFD74003EFE8D828E838F10
:1055F400F0127C96FDBD02030256047F000256B9E8
:10560400900C7FE0FCA3E0FDA3E0FE742E2CFC7460
:10561400003DFDE50D240FF8E625E0FBEB25E0FB5E
:10562400E50D2407F8EB2CF674003D08F608A606F1
:10563400900C7FE0FAA3E0FDA3E0FE742E2AFA7436
:10564400003DFDEB2AFF74003DFDE50D24F6F8E571
:105654000D240BF9E6F4F708E6F409F708E6F40973
:10566400F708E6F409F78F828D838EF0127C96FC9E
:10567400A3127C96FDA3127C96FAA3127C96FEE5F7
:105684000D240BF8E6520408E6520508E652020817
:10569400E65206E50D2407F886820886830886F01C
:1056A400EC12796BA3ED12796BA3EA12796BA3EE7A
:1056B40012796B7F01900C7FE0FCA3E0FDA3E0FE78
:1056C40074322CFC74003DFDE50D240FF8E62CFC2F
:1056D40074003DFD8C828D838EF0740012796BD042
:1056E400E053E080E5E042A8D0E08F82850D81D0D0
:1056F4000D22C00D85810DE5812416F581AF82AEA2
:1057040083ADF0E50D2413F87601E50D2410F8A619
:105714000708A60608A605C0E0C0A8C2AFE50D2488
:10572400F5F8E608467003025799E50D24F5F8E507
:105734000D240DF9E6F708E609F708E609F7742ED3
:105744002FFF74003EFEE50D24FDF8E625E0FCEC99
:1057540025E0FCEC2FFA74003EFB8D048A828B83D7
:105764008CF0127C96FAA3127C96FBA3127C96FC16
:10577400A3127C96FFE50D240DF886820886830823
:1057840086F0EA12796BA3EB12796BA3EC12796BB6
:10579400A3EF12796BE50D2410F8743226FD740022
:1057A4000836FE088607E50D24FDF88602EA2DFD7D
:1057B40074003EFE8D828E838FF0127C96FC8D8267
:1057C4008E838FF0740212796BE50D24F8F8C3749C
:1057D4000496500302598CE50D24F8F8E626269029
:1057E40057E77302598C0257F602587A0258F702A7
:1057F400593BC004E50D2410F8742E26FD740008EE
:1058040036FE088607EA25E0FBEB25E0FBE50D24E0
:105814000AF8EB2DF674003E08F608A607E50D24F9
:105824000AF886820886830886F0127C96FAA31208
:105834007C96FBA3127C96FCA3127C96FFE50D24B8
:10584400F9F8E6420208E6420308E6420408E642A2
:1058540007E50D240AF886820886830886F0EA1292
:10586400796BA3EB12796BA3EC12796BA3EF12792A
:105874006BD00402598CC004E50D2410F8742E2654
:10588400FD74000836FE088607EA25E0FBEB25E0F8
:10589400FBE50D240AF8EB2DF674003E08F608A685
:1058A40007E50D240AF886820886830886F0127CB0
:1058B40096FAA3127C96FBA3127C96FCA3127C9608
:1058C400FF0ABA00090BBB00050CBC00010FE50D73
:1058D400240AF886820886830886F0EA12796BA384
:1058E400EB12796BA3EC12796BA3EF12796BD004F2
:1058F40002598CE50D2410F8742E26FD7400083628
:10590400FE088607EA25E0FBEB25E0FBEB2DFD74A2
:10591400003EFE8D828E838FF0E50D24F9F8E612A9
:10592400796BA308E612796BA308E612796BA308D6
:10593400E612796B02598CBC0203025985E50D24E9
:1059440010F8742E26FD74000836FE088607EA2532
:10595400E0FBEB25E0FBEB2DFD74003EFE8D828E1B
:10596400838FF0E50D24F9F8E612796BA308E612AB
:10597400796BA308E612796BA308E612796B0259D6
:105984008CE50D2413F87600BC01028003025CFE52
:10599400E50D2410F8740326FD74000836FE08860D
:1059A40007E50D240DF8740B2DF674003E08F60877
:1059B400A607E50D240DF886820886830886F0E59F
:1059C4000D2414F9127C96F7A3127C9609F7A312FE
:1059D4007C9609F7E50D240AF874022DF674003E4E
:1059E40008F608A607E50D240AF8868208868308C7
:1059F40086F0127C96FAA3127C96FBA3127C96FC8A
:105A0400A80D0874052AF674003B08F608A604E5F8
:105A14000D2407F874052DF674003E08F608A60751
:105A2400E50D2407F886820886830886F0127C96A2
:105A3400FAA3127C96FBA3127C96FCA80D0886821E
:105A44000886830886F0EA12796BA3EB12796BA3BC
:105A5400EC12796BE50D2407F886820886830886A4
:105A6400F0127C96FAA3127C96FBA3127C96FCA8F7
:105A74000D0874022AF674003B08F608A604E50D26
:105A8400240AF886820886830886F0127C96FAA394
:105A9400127C96FBA3127C96FCA80D0886820886CD
:105AA400830886F0EA12796BA3EB12796BA3EC12EC
:105AB400796BE50D2414F8A90D09740126F7740017
:105AC400083609F708E609F7A80D088682088683D0
:105AD4000886F0127C96FAA3127C96FBA3127C969D
:105AE400FCC005C006C0078A828B838CF01200318B
:105AF40015811581158170028003025B35E50D2443
:105B040007F886820886830886F0127C96FAA31228
:105B14007C96FBA3127C96FCA80D088682088683DB
:105B24000886F0EA12796BA3EB12796BA3EC127975
:105B34006BC005C006C007E50D240DF886820886F3
