:0400000002005F3269
:01000B0032C2
:0100130032BA
:01001B0032B2
:0300230002073C95
:03002B0002782731
:0300C20002002E0B
:03002E000200C904
:1000C50053D9BF22C00D85810DE581241FF581E53A
:1000D5000D240EF97753E904A8E07679740229A86E
:1000E500E07673740329A8E07674740429A8E07691
:1000F50065740529A8E0766D740629A8E076207454
:100105000729A8E07673740829A8E076747409298C
:10011500A8E07661740A29A8E07672740B29A8E034
:100125007674740C29A8E0762E740D29A8E0762E35
:10013500740E29A8E0762E740F29A8E0760D7410A8
:1001450029A8E0760A741129A8E07600A80D08769A
:1001550052E804C000A8E07675D000740228C000FB
:10016500A8E0766ED000740328C000A8E0766ED0B3
:1001750000740428C000A8E07669D000740528C082
:1001850000A8E0766ED000740628C000A8E0766767
:10019500D000740728C000A8E0762ED00074082887
:1001A500C000A8E0762ED000740928C000A8E0762B
:1001B5002ED000740A28C000A8E0760DD000740B7C
:1001C50028C000A8E0760AD000740C28A8E07600C4
:1001D50089078F057E007F4075B2837B007C011BFC
:1001E500BBFF011CEB4C60030201E475EF0475A72E
:1001F500FF43A41075E10175E240C007C006C005C4
:100205007480C0E075828075832575F000740012D6
:1002150005F41581D005D006D0078D828E838FF029
:10022500127C4DFCEC700302025FC007C006C005DE
:10023500742CC0E07401C0E0C004758200758300B1
:1002450075F0001208C0158115811581D005D006FD
:10025500D0070DBD00010E02021F7401C0E074003D
:10026500C0E07400C0E004C0E07400C0E0C0E0C0BD
:10027500E07480C0E07400C0E0740DC0E0747DC01F
:10028500E07480C0E07582A5758302122544E5817E
:1002950024F4F581122E2E02029C850D81D00D22AB
:1002A500C0E0C0A8C2AF7404C0E07400C0E0740030
:1002B500C0E07402C0E07400C0E0C0E0C0E0743289
:1002C500C0E07400C0E07418C0E0747DC0E07480C4
:1002D500C0E07582B7758303122544E58124F4F5E2
:1002E500817407C0E07400C0E07400C0E07403C00E
:1002F500E07400C0E0C0E0C0E07432C0E07400C04B
:10030500E07422C0E0747DC0E07480C0E075823E78
:10031500758304122544E58124F4F581740AC0E04F
:100325007400C0E07400C0E07402C0E07400C0E076
:10033500C0E0C0E07432C0E07400C0E0742CC0E0DE
:10034500747DC0E07480C0E07582D0758304122589
:1003550044E58124F4F581740DC0E07400C0E074B7
:1003650000C0E07403C0E07400C0E0C0E0C0E07409
:1003750032C0E07400C0E07436C0E0747DC0E07443
:1003850080C0E0758262758305122544E58124F4F9
:10039500F581900001E0FDA3E0FEA3E0FF8D828ED4
:1003A500838FF0122C73D0E053E080E5E042A8D0B3
:1003B500E022742CC0E07401C0E07454C0E0758282
:1003C5000075830075F0001208C01581158115812F
:1003D500742CC0E07401C0E07430C0E07582007513
:1003E500830075F0001208C0158115811581742CE4
:1003F500C0E07401C0E0740DC0E075820075830033
:1004050075F0001208C0158115811581742CC0E0A6
:100415007401C0E0740AC0E075820075830075F050
:10042500001208C0158115811581B2B375826475F6
:100435008300122DF80203B722742CC0E07401C0AA
:10044500E07454C0E075820075830075F0001208F1
:10045500C0158115811581742CC0E07401C0E0744C
:1004650031C0E075820075830075F0001208C01573
:100475008115811581742CC0E07401C0E0740DC034
:10048500E075820075830075F0001208C0158115AE
:10049500811581742CC0E07401C0E0740AC0E07558
:1004A500820075830075F0001208C015811581154D
:1004B50081C2B475821E758300122DF8D2B475827F
:1004C50046758300122DF802043E22742CC0E07498
:1004D50001C0E07454C0E075820075830075F000BA
:1004E5001208C0158115811581742CC0E07401C0F6
:1004F500E07432C0E075820075830075F000120863
:10050500C0158115811581742CC0E07401C0E0749B
:100515000DC0E075820075830075F0001208C015E6
:100525008115811581742CC0E07401C0E0740AC086
:10053500E075820075830075F0001208C0158115FD
:10054500811581C2B5758264758300122DF8D2B507
:10055500758232758300122DF80204D022742CC0E6
:10056500E07401C0E07454C0E075820075830075C5
:10057500F0001208C0158115811581742CC0E07436
:1005850001C0E07433C0E075820075830075F0002A
:100595001208C0158115811581742CC0E07401C045
:1005A500E0740DC0E075820075830075F0001208D7
:1005B500C0158115811581742CC0E07401C0E074EB
:1005C5000AC0E075820075830075F0001208C01539
:1005D5008115811581C2B6758246758300122DF885
:0F05E500D2B675821E758300122DF802056222B0
:107D0D0073746172745F7461736B006C6564305F62
:107D1D007461736B006C6564315F7461736B006CBF
:107D2D006564325F7461736B006C6564335F74619D
:037D3D00736B0065
:1005F400C00D85810DC082C083C0F0C0E0C0E0C0E2
:10060400A8C2AF7508017400C0E004C0E0E50D2481
:10061400FDF88682120C33AA82AB83AFF0158115E4
:1006240081900010EAF0EBA3F0EFA3F07400C0E0B7
:1006340004C0E0E50D24FDF88682120C33AD82AED1
:1006440083AFF015811581900013EDF0EEA3F0EF68
:10065400A3F0759810A80D0886820886830886F092
:1006640008E61278D6AC82AD83AEF0FFC004C005B4
:10067400C006C00775820075831B75F037744B1272
:100684007B8AAC82AD83AEF0FFE58124FCF58174F6
:1006940000C0E0C0E0C0E07440C0E08C828D838E76
:1006A400F0EF127B8AAC82AD83AEF0FFE58124FCCF
:1006B400F5817400C0E0C0E07480C0E003C0E08C49
:1006C400828D838EF0EF127B8AAC82AD83AEF0FF15
:1006D400E58124FCF581C004C005C006C00775820D
:1006E4000075834075F080744312787FAC82AD83CB
:1006F400AEF0FFE58124FCF5818C828D838EF0EFD2
:100704001278E9AF82538908438920538EF4438ECB
:10071400018F8B8F8D759850D2ACD28ED299D0E048
:1007240053E080E5E042A8D0E0758200758300754F
:10073400F000850D81D00D22C020C0E0C0F0C08241
:10074400C083C007C006C005C004C003C002C00106
:10075400C000C0D075D000C00D85810DE581240591
:10076400F581E50D2404F87600C0E0C0A8C2AF20EE
:1007740098030207CDE50D2405F8A699C298E50D66
:100784002404FF7E007D40E50D2405FCA80D08A689
:1007940004087600087640900010E0FAA3E0FBA37A
:1007A400E0FC7400C0E0C007C006C005A80D08E660
:1007B400C0E008E6C0E008E6C0E08A828B838CF0E3
:1007C4001210CBE58124F9F581209903020833E561
:1007D4000D2404FF7E007D40E50D2405FCA80D08D2
:1007E400A604087600087640900013E0FAA3E0FB24
:1007F400A3E0FCC007C006C005A80D08E6C0E008D9
:10080400E6C0E008E6C0E08A828B838CF0121BA469
:10081400AF82E58124FAF581BF0102800302082E2C
:10082400E50D2405F88699020831750801C299E599
:100834000D2404F8E6700302084112773CD0E0531B
:10084400E080E5E042A8D0E0850D81D00DD0D0D085
:1008540000D001D002D003D004D005D006D007D0F8
:1008640083D082D0F0D0E0D02032C00D85810DE558
:100874000D24FBF88605088606088607900010E01C
:10088400FAA3E0FBA3E0FCE50D24F9F8E6C0E008D8
:10089400E6C0E0C005C006C0078A828B838CF012D4
:1008A4001335AF82E58124FBF581EF70030208BAAA
:1008B4007582010208BD758200D00D22C00D8581AC
:1008C4000DC0E0C0A8C2AF7401B5080280030208DD
:1008D400E4E50D24FDF886997508007F0102092BD3
:1008E400E50D24FDFE8E077D007C40900013E0FAA8
:1008F400A3E0FBA3E0FE7400C0E0E50D24FBF8E6F2
:10090400C0E008E6C0E0C007C005C0048A828B834B
:100914008EF0120DDEAE82E58124FAF5818E07EEAB
:10092400600302092B7F01D0E053E080E5E042A898
:10093400D0E08F82D00D2222C00D85810DC082C0EF
:1009440083C0F0E581240AF581E50D240DF87601D4
:10095400A80D08E608467003020C1FA80D087425AC
:1009640026FA74000836FB0886048A828B838CF08E
:10097400127C4DFFBF01005003020C1FC002C003D4
:10098400C0048F037C00C002C003C0047582FF75DD
:1009940083FF12788AAB82AC8315811581D002A8BB
:1009A4000D08E50D2407F9742626F77400083609A6
:1009B400F708E609F7E50D2407F886820886830818
:1009C40086F0127C4DFA7F00C3EB9AEC9FD004D0E2
:1009D40003D0025003020C1FC0E0C0A8C2AFA80D90
:1009E40008E50D240AF9740626F77400083609F799
:1009F40008E609F7A80D0886820886830886F0E5CC
:100A04000D2404F9127C4DF7A3127C4D09F7A312AF
:100A14007C4D09F78A828B838CF0127C4DFFE50DA7
:100A24002407F886820886830886F0127C4DFE8FA0
:100A3400F0EEA4C8E50D2404C826FD08E635F0FE52
:100A4400088607E50D240AF886820886830886F05E
:100A5400ED127922A3EE127922A3EF127922A80DC6
:100A640008742426FD74000836FE0886078D828EDD
:100A7400838FF07400127922A80D08E50D2404F97F
:100A8400740326F77400083609F708E609F7A80D79
:100A94000886820886830886F0127C4DFDA3127CAA
:100AA4004DFEA3127C4DFFE50D2404F886820886D2
:100AB400830886F0ED127922A3EE127922A3EF12B5
:100AC4007922E50D240AF8E50D2404F9740326F7C8
:100AD4007400083609F708E609F7A80D08868208A5
:100AE40086830886F0127C4DFDA3127C4DFEA31272
:100AF4007C4DFF8A828B838CF0127C4DFA7C00E55E
:100B04000D240AF8EA24FFF6EC34FF08F6E50D2478
:100B140007F886820886830886F0127C4DFB7C00E9
:100B2400C007C006C005C003C004E50D240AF8864A
:100B34008208868312793DAB82AC8315811581D0FE
:100B440005D006D007EB2DFDEC3EFEE50D2404F8A0
:100B540086820886830886F0ED127922A3EE127944
:100B640022A3EF127922A80D08742726FD74000829
:100B740036FE0886078D828E838FF074FF127922E9
:100B8400A80D08742826FD74000836FE0886078D13
:100B9400828E838FF074FF127922E50D24FDF8E62E
:100BA4006003020BE1A80D08740C26FD74000836DE
:100BB400FE0886078D828E838FF0127C4D700302AF
:100BC4000C11A80D08740C26FD74000836FE088666
:100BD400078D828E838FF0124062020C11A80D08DB
:100BE400740C26FD74000836FE0886078D828E83F9
:100BF4008FF0126D66A80D08741826FD740008366F
:100C0400FE0886078D828E838FF0126D66D0E053C6
:100C1400E080E5E042A8D0E0020C26E50D240DF8C2
:100C24007600E50D240DF88682850D81D00D22C055
:100C34000D85810DC0827C007D007E00A80D08E634
:100C44007003020D11C004C005C006A80D08860279
:100C54007B00C006C005C004C002C0037582FF75D6
:100C640083FF12788AAA82AB8315811581D004D0C0
:100C740005D006E50D24FDF886057E00C3EA9DEB4C
:100C84009ED006D005D0045003020D11A80D08E52E
:100C94000D24FDF986F0E7A4FAABF0C374D69A7478
:100CA400FF9B5003020D1174292AFA74003BFB8A3E
:100CB400828B831273E7AA82AB83AFF08A048B051D
:100CC4008F06EC4D7003020D118C028D038E077498
:100CD400292AFA74003BFBC006C005C004C004C046
:100CE40005C006E50D24FCF8E6C0E0C002C003C060
:100CF40007E50D24FDF8E6C0E0A80D088682120D74
:100D04001CE58124F8F581D004D005D0068C828DB1
:100D1400838EF01581D00D22C00D85810DC082E532
:100D24000D24FDF8E66003020D5FE50D24F6F88658
:100D340004088605088606E50D24F6F8860208866A
:100D4400030886078C828D838EF0EA127922A3EB46
:100D5400127922A3EF127922020D8DE50D24F6F803
:100D64008604088605088606E50D24FAF886020836
:100D740086030886078C828D838EF0EA127922A37B
:100D8400EB127922A3EF127922E50D24F6F88605F9
:100D940008860608860774252DFA74003EFB8F0426
:100DA4008A828B838CF0A80D08E612792274262D92
:100DB400FA74003EFB8F048A828B838CF0E50D2449
:100DC400FDF8E61279227401C0E08D828E838FF0E3
:100DD40012093C15811581D00D22C00D85810DE5C8
:100DE400812411F581AD82AB83ACF0E50D2411F8BB
:100DF4007600E50D240BF8A60508A60308A604E56D
:100E04000D24F8F8B60204740180027400FFE50DA5
:100E1400240EFEE50D2404F8A606A80D0874242D5E
:100E2400F674003B08F608A604E50D2408F87425BA
:100E34002DF674003B08F608A604C0E0C0A8C2AFB3
:100E4400A80D0886820886830886F0127C4DFDE58D
:100E54000D2408F886820886830886F0127C4DFCEF
:100E6400C3ED9C5003020E72EF7003020EEAE50D0F
:100E740024F8F8E6C0E0E50D24FBF8E6C0E008E657
:100E8400C0E008E6C0E0E50D240BF88682088683FE
:100E94000886F0121E0FE58124FCF581E50D240B74
:100EA400F8741826FA74000836FB0886048A828BC4
:100EB400838CF0127C4D7003020ED9E50D240BF8DF
:100EC400741826FA74000836FB0886048A828B8319
:100ED4008CF0124062D0E053E080E5E042A8D0E01C
:100EE4007582010210C5E50D24F9F8E60846600391
:100EF400020F08D0E053E080E5E042A8D0E075821C
:100F0400000210C5E50D2411F8E66003020F318ECE
:100F1400027B007C408A828B838CF0C007C006125F
:100F24004E56D006D007E50D2411F87601D0E053D3
:100F3400E080E5E042A8D0E0C007C006122E9CD0B5
:100F440006D007C0E0C0A8C2AFE50D240BF8742793
:100F540026FA74000836FB0886048A828B838CF098
:100F6400127C4DFDBDFF028003020F7B8A828B83BE
:100F74008CF07400127922E50D240BF8742826FAFB
:100F840074000836FB0886048A828B838CF0127CFA
:100F94004DFDBDFF028003020FA98A828B838CF072
:100FA4007400127922C007D0E053E080E5E042A843
:100FB400D0E0E50D24F9FCE50D2405F8A604087637
:100FC40000087640E50D2404F886047D007F40C0C7
:100FD40006E50D2405F8E6C0E008E6C0E008E6C032
:100FE400E08C828D838FF0124E88AF82158115813B
:100FF4001581D006EFD00760030210AFE50D240B76
:10100400F886820886830886F0C007C0061224B5D5
:10101400E582D006D0077003021089E50D240BF891
:10102400740C26FB74000836FC088605C007C0064D
:10103400E50D24F9F8E6C0E008E6C0E08B828C8375
:101044008DF0123E4615811581D006D007E50D249A
:101054000BF886820886830886F0C007C006122231
:10106400C0D006D007C007C006122EA4E582D00661
:10107400D0076003020E3EC007C00612773CD006BC
:10108400D007020E3EE50D240BF8868208868308FD
:1010940086F0C007C0061222C0D006D007C007C021
:1010A40006122EA4D006D007020E3EE50D240BF83E
:1010B40086820886830886F01222C0122EA47582C6
:1010C40000850D81D00D22C00D85810D058105811E
:1010D4000581AA82AB83ACF0A80D08A60208A6037A
:1010E40008A60474242AFD74003BFE8C078D828EAE
:1010F400838FF0127C4DFD74252AFC74003BFE8C1A
:10110400078C828E838FF0127C4DFCC3ED9C5003C0
:10111400021124E50D24F7F8B6020280030212102E
:10112400A80D08742826FD74000836FE0886078D6D
:10113400828E838FF0127C4DFFA80D08742426FC48
:1011440074000836FD0886068C828D838EF0127C2E
:101154004DC007E50D24F7F8E6C0E0E50D24FBF8E3
:10116400E6C0E008E6C0E008E6C0E0A80D08868214
:101174000886830886F0121E0FE58124FCF581D0D1
:1011840007BFFF0280030211F1A80D08741826FCA2
:1011940074000836FD0886068C828D838EF0127CDE
:1011A4004D700302120BA80D08741826FC74000875
:1011B40036FD0886068C828D838EF0124062E582AD
:1011C400700302120BE50D24F8F8E60846700302DA
:1011D400120BE50D24F8F886040886050886068CAB
:1011E400828D838EF0740112792202120BA80D08ED
:1011F400742826FC74000836FD0886060F8C828D40
:10120400838EF0EF1279227F010212127F008F8207
:10121400850D81D00D22C00D85810DC082C083C093
:10122400F0E5812404F581A80D08742426FA7400DD
:101234000836FB0886048A828B838CF0E50D24072C
:10124400F8127C4DF6A80D08742526FD74000836A6
:10125400FE0886078D828E838FF0127C4DFDE50D8E
:101264002407F8C3E69D400302132BA80D08E50DDF
:101274002404F9742826F77400083609F708E609E7
:10128400F7E50D2404F886820886830886F0127C2C
:101294004DFFE50D2407F8E604FE8A828B838CF06B
:1012A400EE127922BFFF028003021314A80D087402
:1012B4001826FC74000836FD0886068C828D838E01
:1012C400F0127C4D7003021326A80D08741826FC36
:1012D40074000836FD0886068C828D838EF01240D9
:1012E40062E5827003021326E50D24FBF8E6084646
:1012F4007003021326E50D24FBF88604088605080E
:1013040086068C828D838EF0740112792202132654
:101314000FE50D2404F886820886830886F0EF1210
:1013240079227F0102132D7F008F82850D81D00DDC
:1013340022C00D85810DE581240BF581AC82AD833E
:10134400AFF0E50D2408F87600E50D2405F8A604B1
:1013540008A60508A607E50D2409FEE50D2404F8F2
:10136400A606A80D0874242CF674003D08F608A6F9
:1013740007C0E0C0A8C2AFA80D088682088683080B
:1013840086F0127C4DFC8C05EC7003021424C0051D
:10139400E50D24FBF8E6C0E008E6C0E008E6C0E09E
:1013A400E50D2405F886820886830886F0122169F3
:1013B400158115811581D005E50D2405F8742426C1
:1013C400FB74000836FC088607ED14FA8B828C83C4
:1013D4008FF0EA127922E50D2405F8740C26FB74CB
:1013E400000836FC0886078B828C838FF0127C4DB4
:1013F4007003021413E50D2405F8740C26FB740025
:101404000836FC0886078B828C838FF0124062D0EA
:10141400E053E080E5E042A8D0E07582010215EBDC
:10142400E50D24F9F8E608466003021442D0E053BF
:10143400E080E5E042A8D0E07582000215EBE50DFE
:101444002408F8E660030214678E037C007F408B57
:10145400828C838FF0C006124E56D006E50D240808
:10146400F87601D0E053E080E5E042A8D0E0C00681
:10147400122E9CD006C0E0C0A8C2AFE50D2405F82A
:10148400742726FB74000836FC0886078B828C833D
:101494008FF0127C4DFABAFF0280030214AD8B82E6
:1014A4008C838FF07400127922E50D2405F87428DA
:1014B40026FB74000836FC0886078B828C838FF029
:1014C400127C4DFABAFF0280030214DB8B828C83F8
:1014D4008FF07400127922C006D0E053E080E5E07A
:1014E40042A8D0E0E50D24F9FF7C007B40E50D2403
:1014F40004F886027D007E40C006C007C004C00315
:101504008A828D838EF0124E88AF821581158115E3
:1015140081D006D006EF60030215B2E50D2405F86C
:1015240086820886830886F0C006122458E582D095
:10153400067003021594E50D2405F8741826FC744E
:10154400000836FD088607C006E50D24F9F8E6C054
:10155400E008E6C0E08C828D838FF0123E46158150
:101564001581D006E50D2405F88682088683088651
:10157400F0C0061222C0D006C006122EA4E582D006
:10158400066003021375C00612773CD00602137579
:10159400E50D2405F886820886830886F0C00612C5
:1015A40022C0D006C006122EA4D006021375E50D83
:1015B4002405F886820886830886F0C0061222C0B5
:1015C400D006C006122EA4D006E50D2405F88682A6
:1015D4000886830886F0C006122458E582D0067077
:1015E40003021375758200850D81D00D22C00D850F
:1015F400810DE581240BF581AC82AD83AFF0E50D5F
:101604002405F87600E50D2409F8A60408A60508C3
:10161400A607E50D2406FEA80D08A606A80D0808D1
:1016240074242CF674003D08F608A607C0E0C0A890
:10163400C2AFA80D080886820886830886F0127C4B
:101644004DFC8C07EC70030216ABEF14FCA80D08DC
:101654000886820886830886F0EC127922E50D2438
:1016640009F8740C26FB74000836FC0886078B8284
:101674008C838FF0127C4D700302169AE50D2409B9
:10168400F8740C26FB74000836FC0886078B828CE1
:10169400838FF0124062D0E053E080E5E042A8D0AE
:1016A400E0758201021870E50D24FCF8E608466036
:1016B400030216C9D0E053E080E5E042A8D0E0750B
:1016C4008200021870E50D2405F8E660030216EEA8
:1016D4008E037C007F408B828C838FF0C006124E79
:1016E40056D006E50D2405F87601D0E053E080E5F8
:1016F400E042A8D0E0C006122E9CD006C0E0C0A8EC
:10170400C2AFE50D2409F8742726FB74000836FCE3
:101714000886078B828C838FF0127C4DFABAFF0205
:1017240080030217348B828C838FF0740012792229
:10173400E50D2409F8742826FB74000836FC088695
:10174400078B828C838FF0127C4DFABAFF028003E0
:101754000217628B828C838FF07400127922C00688
:10176400D0E053E080E5E042A8D0E0E50D24FCFFA2
:101774007C007B40A80D0886027D007E40C006C028
:1017840007C004C0038A828D838EF0124E88AF8214
:10179400158115811581D006D006EF600302183734
:1017A400E50D2409F886820886830886F0C00612AF
:1017B4002458E582D0067003021819E50D2409F8AF
:1017C400741826FC74000836FD088607C006E50D6B
:1017D40024FCF8E6C0E008E6C0E08C828D838FF03C
:1017E400123E4615811581D006E50D2409F886823E
:1017F4000886830886F0C0061222C0D006C00612EE
:101804002EA4E582D0066003021630C00612773C8F
:10181400D006021630E50D2409F88682088683086E
:1018240086F0C0061222C0D006C006122EA4D0062E
:10183400021630E50D2409F886820886830886F0AE
:10184400C0061222C0D006C006122EA4D006E50D92
:101854002409F886820886830886F0C00612245874
:10186400E582D0067003021630758200850D81D0A2
:101874000D22C00D85810DE581240DF581AD82AB6E
:1018840083AFF07C00E50D240BF8A60508A6030839
:10189400A607E50D2408FEA80D08A606E50D2405F7
:1018A400F874242DF674003B08F608A607C0E0C0BF
:1018B400A8C2AFE50D2405F886820886830886F061
:1018C400127C4D70030219A2E50D240BF874062650
:1018D400FA74000836FB08860774032AFA74003B7E
:1018E400FB8A828B838FF0127C4DFEA3127C4DFD0C
:1018F400A3127C4DFCC006C005C004E50D24FBF812
:10190400E6C0E008E6C0E008E6C0E0E50D240BF818
:1019140086820886830886F012216915811581154F
:1019240081D004D005D006E50D240BF8740626FA00
:1019340074000836FB08860774032AFA74003BFB1C
:101944008A828B838FF0EE127922A3ED127922A37F
:10195400EC127922E50D240BF8741826FA740008A9
:1019640036FB0886078A828B838FF0127C4D7003C6
:10197400021991E50D240BF8741826FA7400083640
:10198400FB0886078A828B838FF0124062D0E05373
:10199400E080E5E042A8D0E0758201021B9EE50DDF
:1019A40024F9F8E6084660030219C0D0E053E08049
:1019B400E5E042A8D0E0758200021B9EEC600302C1
:1019C40019DB8E027B007F408A828B838FF0C006F6
:1019D400124E56D0067C01D0E053E080E5E042A8E8
:1019E400D0E0C006C004122E9CD004D006C0E0C0D3
:1019F400A8C2AFE50D240BF8742726FA7400083644
:101A0400FB0886078A828B838FF0127C4DFDBDFF15
:101A1400028003021A258A828B838FF07400127964
:101A240022E50D240BF8742826FA74000836FB0806
:101A340086078A828B838FF0127C4DFDBDFF028066
:101A440003021A538A828B838FF07400127922C0A6
:101A540004D0E053E080E5E042A8D0E0E50D24F9AD
:101A6400FFA80D0808A607087600087640A80D0808
:101A740086047D007F40C006C004A80D0808E6C0A7
:101A8400E008E6C0E008E6C0E08C828D838FF012A7
:101A94004E88AF82158115811581D004D006D004FB
:101AA400EF6003021B59E50D240BF8868208868338
:101AB4000886F0C006C004122458E582D004D0067B
:101AC4007003021B33E50D240BF8741826FB740015
:101AD4000836FD088607C006C004E50D24F9F8E6BB
:101AE400C0E008E6C0E08B828D838FF0123E46157D
:101AF400811581D004D006E50D240BF88682088672
:101B0400830886F0C006C0041222C0D004D006C0E8
:101B140006C004122EA4E582D004D0066003021885
:101B2400B1C006C00412773CD004D0060218B1E557
:101B34000D240BF886820886830886F0C006C0044C
:101B44001222C0D004D006C006C004122EA4D004B1
:101B5400D0060218B1E50D240BF8868208868308A6
:101B640086F0C006C0041222C0D004D006C006C04D
:101B740004122EA4D004D006E50D240BF8868208A6
:101B840086830886F0C006C004122458E582D00477
:101B9400D00670030218B1758200850D81D00D2224
:101BA400C00D85810DC082C083C0F0A80D087424C7
:101BB40026FA74000836FB0886048A828B838CF02C
:101BC400127C4DFA8A04EA7003021CBAA80D087448
:101BD4002726FA74000836FB0886078A828B838FCF
:101BE400F0127C4DFFC007C004E50D24FBF8E6C0ED
:101BF400E008E6C0E008E6C0E0A80D088682088692
:101C0400830886F0122169158115811581D004D0CD
:101C140007A80D08742426FB74000836FD08860600
:101C24001C8B828D838EF0EC127922BFFF0280031D
:101C3400021C9BA80D08740C26FC74000836FD08D1
:101C440086068C828D838EF0127C4D7003021CB547
:101C5400A80D08740C26FC74000836FD0886068C52
:101C6400828D838EF0124062E5827003021CB5E51A
:101C74000D24F8F8E608467003021CB5E50D24F8B7
:101C8400F886040886050886068C828D838EF07497
:101C940001127922021CB5A80D08742726FC7400D1
:101CA4000836FD0886060F8C828D838EF0EF12793C
:101CB400227F01021CBC7F008F82850D81D00D2202
:101CC400C00D85810DAD82AE83AFF074242DFA74FE
:101CD400003EFB8F048A828B838CF0127C4D700350
:101CE400021D6D74062DFA74003EFB8F0474032AE2
:101CF400FA74003BFB8A828B838CF0127C4DFAA32E
:101D0400127C4DFBA3127C4DFCC007C006C005C06D
:101D140004C003C002E50D24FBF8E6C0E008E6C0F9
:101D2400E008E6C0E08D828E838FF0122169158170
:101D340015811581D002D003D004D005D006D00778
:101D440074062DFD74003EFE74032DFD74003EFEEA
:101D54008D828E838FF0EA127922A3EB127922A36B
:101D6400EC1279227F01021D6F7F008F82D00D2239
:101D7400AD82AE83AFF0C0E0C0A8C2AF74242DFD25
:101D840074003EFE8D828E838FF0127C4DFDD0E078
:101D940053E080E5E042A8D0E08D8222AD82AE839C
:101DA400AFF0C0E0C0A8C2AF74252DFA74003EFBAA
:101DB4008F048A828B838CF0127C4DFA74242DFD5F
:101DC40074003EFE8D828E838FF0127C4DFDEAC33B
:101DD4009DFAD0E053E080E5E042A8D0E08A822278
:101DE400AD82AE83AFF074242DFD74003EFE8D826F
:101DF4008E838FF0127C4DFD8D8222AD82AE83AF37
:101E0400F08D828E838FF01274A722C00D85810D10
:101E1400C082C083C0F0E581240AF581A80D08744E
:101E24002426FA74000836FB0886048A828B838C85
:101E3400F0E50D240DF8127C4DF6A80D08E50D24EF
:101E44000AF9742626F77400083609F708E609F734
:101E5400E50D240AF886820886830886F0127C4DF4
:101E6400FEEE700302214EE50D24FAF8E66003024B
:101E74001FCBC002C003C0048E047D00A80D08E57A
:101E84000D2407F9740326F77400083609F708E6E9
:101E940009F7E50D2407F886820886830886F01280
:101EA4007C4DFAA3127C4DFBA3127C4DFFC004C0F1
:101EB40003C002C004C005E50D24FBF8E6C0E00839
:101EC400E6C0E008E6C0E08A828B838FF0127A34A1
:101ED400E58124FBF581D002D003D004E50D24076D
:101EE400F886820886830886F0127C4DFCA3127C57
:101EF4004DFDA3127C4DFFE50D240AF88682088669
:101F0400830886F0127C4DFBE50D2404F8EB2CF6D7
:101F140074003D08F608A607E50D2407F886820834
:101F240086830886F0E50D2404F9E7127922A309D3
:101F3400E7127922A309E7127922A80D087406266C
:101F4400FA74000836FB0886078A828B838FF012A6
:101F54007C4DFAA3127C4DFBA3127C4DFFE50D24AE
:101F640004F8C002C003C00786820886830886F08E
:101F7400120031158115811581D004D003D002508F
:101F84000302214EC002C003C004A80D08868208C3
:101F940086830886F0127C4DFCA3127C4DFDA312AF
:101FA4007C4DFFE50D2407F886820886830886F0B9
:101FB400EC127922A3ED127922A3EF127922D00434
:101FC400D003D00202214EC002C003C0047F00A887
:101FD4000D08E50D2404F9740626F7740008360983
:101FE400F708E609F7E50D2404F8E50D2407F9746C
:101FF4000326F77400083609F708E609F7E50D2407
:1020040007F886820886830886F0127C4DFBA312AB
:102014007C4DFCA3127C4DFDC004C003C002C0066D
:10202400C007E50D24FBF8E6C0E008E6C0E008E6DA
:10203400C0E08B828C838DF0127A34E58124FBF529
:1020440081D002D003D004E50D2407F886820886E7
:10205400830886F0127C4DFDA3127C4DFEA3127CF6
:102064004DFFE50D240AF886820886830886F0125F
:102074007C4DFC7B00EDC39CFDEE9BFEE50D24072F
:10208400F886820886830886F0ED127922A3EE1280
:102094007922A3EF127922A80D0886820886830884
:1020A40086F0127C4DFAA3127C4DFBA3127C4DFCEE
:1020B400C002C003C0048D828E838FF012003115DC
:1020C4008115811581D004D003D002400302213050
:1020D400C002C003C004E50D2404F8868208868388
:1020E4000886F0127C4DFDA3127C4DFEA3127C4D9C
:1020F400FFE50D240AF886820886830886F0127CA0
:102104004DFC7B00EDC39CFDEE9BFEE50D2407F822
:1021140086820886830886F0ED127922A3EE12796E
:1021240022A3EF127922D004D003D002E50D24FAC1
:10213400F8B60202800302214EE50D240DF8E67084
:102144000302214EE50D240DF816E50D240DF8E6E5
:1021540004FF8A828B838CF0EF12792275820085CA
:102164000D81D00D22C00D85810DC082C083C0F0C9
:10217400E5812404F581A80D08742626FA74000864
:1021840036FB0886048A828B838CF0E50D2404F8E0
:10219400127C4DF6E50D2404F8E670030222BAC061
:1021A40002C003C004A80D08740626FA7400083699
:1021B400FB088604E50D2405F874032AF674003B35
:1021C40008F608A604E50D2405F886820886830827
:1021D40086F0127C4DFDA3127C4DFEA3127C4DFFB4
:1021E400E50D2404F8E62DFD74003EFEE50D2405FE
:1021F400F886820886830886F0ED127922A3EE120F
:102204007922A3EF1279228A828B838CF0127C4D7F
:10221400FAA3127C4DFBA3127C4DFCC002C003C088
:10222400048D828E838FF012003115811581158102
:10223400D004D003D0025003022273A80D08868272
:102244000886830886F0127C4DFDA3127C4DFEA304
:10225400127C4DFFE50D2405F886820886830886E6
:10226400F0ED127922A3EE127922A3EF1279228AD9
:10227400828B838CF0127C4DFA7F00E50D2405F8E7
:1022840086820886830886F0127C4DFCA3127C4D5E
:10229400FDA3127C4DFEC002C007C004C005C006E9
:1022A400E50D24FBF886820886830886F0127A34CA
:1022B400E58124FBF581850D81D00D22C00D85813A
:1022C4000DC082C083C0F0E5812404F581C0E0C064
:1022D400A8C2AFA80D08742826FA74000836FB08B3
:1022E40086048A828B838CF0E50D2407F8127C4DDA
:1022F400F6A80D08E50D2404F9741826F7740008EF
:102304003609F708E609F7E50D2407F8C3740064F5
:102314008086F063F08095F04003022379E50D2474
:1023240004F886820886830886F0127C4D700302C6
:102334002379A80D08741826FD74000836FE088653
:10234400078D828E838FF0C004C003C002124062E6
:10235400E582D002D003D0047003022370C004C00D
:1023640003C002124FAFD002D003D004E50D2407FE
:10237400F81602230B8A828B838CF074FF12792265
:10238400D0E053E080E5E042A8D0E0C0E0C0A8C2BD
:10239400AFA80D08742726FD74000836FE088607CA
:1023A4008D828E838FF0127C4DFCA80D08E50D24E0
:1023B40004F9740C26F77400083609F708E609F7DF
:1023C400C3740064808CF063F08095F040030224B1
:1023D4003CE50D2404F886820886830886F0127C86
:1023E4004D700302243CC005C006C007A80D087444
:1023F4000C26FA74000836FB0886078A828B838FC2
:10240400F0C007C006C005C004124062E582D004D3
:10241400D005D006D007D007D006D005700302241B
:1024240038C007C006C005C004124FAFD004D005A1
:10243400D006D0071C0223C48D828E838FF074FFD4
:10244400127922D0E053E080E5E042A8D0E0850D87
:1024540081D00D22AD82AE83AFF0C0E0C0A8C2AF80
:1024640074242DFD74003EFE8D828E838FF0127CC9
:102474004D600302247F7F010224817F00D0E0535A
:10248400E080E5E042A8D0E08F8222AD82AE83AF47
:10249400F074242DFD74003EFE8D828E838FF01225
:1024A4007C4D60030224B07F010224B27F008F823E
:1024B40022AD82AE83AFF0C0E0C0A8C2AF74242DB9
:1024C400FA74003EFB8F048A828B838CF0127C4D5D
:1024D400FA74252DFD74003EFE8D828E838FF012DA
:1024E4007C4DFDEAB5050280030224F57F01022438
:1024F400F77F00D0E053E080E5E042A8D0E08F828F
:1025040022AD82AE83AFF074242DFA74003EFB8FAB
:10251400048A828B838CF0127C4DFA74252DFD7411
:10252400003EFE8D828E838FF0127C4DFDEAB50550
:1025340002800302253F7F010225417F008F822212
:10254400C00D85810D058105810581AE82AF83753E
:102554008233758300C007C0061273E7AB82AC8375
:10256400ADF0D006D007A80D08A60308A60408A657
:1025740005A80D08E6084670030225FCC006C0073E
:10258400A80D08742026FA74000836FE088607E5AC
:102594000D24F9F886040886058C828D83C007C053
:1025A40006C0021273E7AB82AC83ADF0D002D00652
:1025B400D0078A828E838FF0EB127922A3EC1279F2
:1025C40022A3ED127922D007D006EB4C600302253A
:1025D400FCA80D0886030886040886058B828C8374
:1025E4008DF0C007C0061274A7D006D007A80D0846
:1025F4007400F608F6087600A80D08E6084670038D
:1026040002268BE50D24F9F886020886037C007DFA
:10261400007400C0E0C0E0C0E0A80D08E6C0E00817
:10262400E6C0E008E6C0E0E50D24F2F8E6C0E00804
:10263400E6C0E008E6C0E0E50D24F5F8E6C0E0E514
:102644000D24F6F8E6C0E008E6C0E008E6C0E0C005
:1026540002C003C004C005E50D24FBF8E6C0E00891
:10266400E6C0E008E6C0E08E828F83122695E581FD
:1026740024ECF581A80D0886820886830886F0126A
:1026840029EA7F0102268D7FFF8F82850D81D00D7F
:1026940022C00D85810DC082C083E581240CF581A3
:1026A400E50D24EDF8E50D2403F9E6F708E609F74E
:1026B40008E609F7E50D2403F8742026FA740008E7
:1026C40036FE0886078A828E838FF0E50D240CF887
:1026D400127C4DF6A3127C4D08F6A3127C4D08F62D
:1026E400E50D240CF8E50D2406F9E6F708E609F7EC
:1026F40008E609F7E50D2403F8E50D2409F9742B20
:1027040026F77400083609F708E609F7E50D24F7FB
:10271400F8E624FFFA08E634FFFE08E634FFFD0875
:10272400E634FFFFE50D240CF8EA26FAEE0836FE3F
:10273400088605E50D2409F886820886830886F054
:10274400EA127922A3EE127922A3ED127922E50D81
:1027540024FBF8E6084670030227EFE50D2403F88E
:10276400742326FD74000836FE0886077B00E50DF9
:102774002409F8EB2DF674003E08F608A607C005F8
:10278400C006C007E50D24FBF8EB26FD74000836EF
:10279400FE0886078D828E838FF0127C4DFCE50D3A
:1027A4002409F886820886830886F0EC1279228D43
:1027B400828E838FF0127C4DD007D006D005700333
:1027C4000227D00BBB08005003022772E50D240337
:1027D400F8742A26FD74000836FE0886078D828E5A
:1027E400838FF0740012792202280BE50D2403F87C
:1027F400742326FD74000836FE0886078D828E83B6
:102804008FF07400127922E50D24F3F8B604005019
:102814000302281FE50D24F3F87603E50D2403F8DD
:10282400741F26FD74000836FE0886078D828E8389
:102834008FF0E50D24F3F8E6127922E50D2403F870
:10284400740326FD74000836FE0886078D828E8385
:102854008FF0126E4DE50D2403F8741126FD7400FB
:102864000836FE0886078D828E838FF0126E4DE542
:102874000D2403F8740B26FD74000836FE08860741
:10288400E50D24EDF886020886030886048D828E01
:10289400838FF0EA127922A3EB127922A3EC127946
:1028A40022E50D2403F8E50D2409F9741126F774C3
:1028B40000083609F708E609F7E50D24F3F886075A
:1028C4007E007404C39FFF74009EFEE50D2409F886
:1028D40086820886830886F0EF127922A3EE1279A5
:1028E40022E50D2403F8741926FD74000836FE0849
:1028F40086078D828E838FF0EA127922A3EB1279F8
:1029040022A3EC127922E50D2403F8742E26FD741B
:10291400000836FE0886077404C0E07400C0E0C0F6
:10292400E08D828E838FF0127AC71581158115810F
:10293400E50D2403F8743226FD74000836FE08867B
:10294400077401C0E07400C0E0C0E08D828E838F04
:10295400F0127AC7158115811581E50D24F4F8E686
:10296400C0E008E6C0E008E6C0E0A80D08E6C0E064
:1029740008E6C0E0E50D2406F8868208868308860A
:10298400F01274C7AF82AE83ADF0E58124FBF5810C
:10299400E50D2403F886820886830886F0EF127911
:1029A40022A3EE127922A3ED127922E50D24F0F888
:1029B400E6084670030229E4E50D24F0F8860508CC
:1029C40086060886078D828E838FF0E50D2403F832
:1029D400E6127922A308E6127922A308E6127922E4
:1029E400850D81D00D22C00D85810DC082C083C0AC
:1029F400F0E581240CF581C0E0C0A8C2AF900C833F
:102A0400E004F0900C7FE0FAA3E0FBA3E0FCEA4BC7
:102A14006003022A3CA80D08900C7FE6F008E6A3A8
:102A2400F008E6A3F0900C83E0FCBC0102800302F2
:102A34002A93124FC0022A93900C87E06003022A63
:102A440093900C7FE0FAA3E0FBA3E0FC741F2AFA46
:102A540074003BFB8A828B838CF0127C4DFAA80DA8
:102A640008741F26FB74000836FC0886078B828CCA
:102A7400838FF0127C4DFBC3EB9A5003022A93A878
:102A84000D08900C7FE6F008E6A3F008E6A3F090AA
:102A94000C8CE02401F0A80D08E50D2407F9741F3F
:102AA40026F77400083609F708E609F7E50D240748
:102AB400F886820886830886F0127C4DFC900C868A
:102AC400E0FBC3EB9C4003022AD3900C86ECF0E5B8
:102AD4000D2407F886820886830886F0127C4DFC54
:102AE400EC75F00CA42416FB740035F0FC8B828C7E
:102AF40083A3E50D240DF8E0F6A3E008F6A3E008AF
:102B0400F6A80D08740326FA74000836FB08860438
:102B140074022AFD74003BFE8C078D828E838FF035
:102B2400E50D240DF8E6127922A308E6127922A312
:102B340008E6127922E50D2404F874052AF67400D7
:102B44003B08F608A604E50D240DF8E50D240AF962
:102B5400740526F77400083609F708E609F7E50D49
:102B6400240AF886820886830886F0127C4DFDA329
:102B7400127C4DFEA3127C4DFFE50D2404F88682E1
:102B84000886830886F0ED127922A3EE127922A337
:102B9400EF127922E50D240AF886820886830886D6
:102BA400F0127C4DFDA3127C4DFEA3127C4DFF74EC
:102BB400022DFD74003EFE8D828E838FF0EA127921
:102BC40022A3EB127922A3EC127922E50D240AF850
:102BD40086820886830886F0EA127922A3EB1279AA
:102BE40022A3EC127922740B2AFA74003BFBE50D44
:102BF4002407F886820886830886F0127C4DFFEF4E
:102C040075F00CA42416FE740035F0FF7D008A8252
:102C14008B838CF0EE127922A3EF127922A3ED12AA
:102C24007922E50D2407F886820886830886F01247
:102C34007C4DFFEF75F00CA42416FE740035F0FFF4
:102C44008E828F83E0FD0D8E828F83EDF0D0E05372
:102C5400E080E5E042A8D0E0900C87E07003022C0D
:102C64006D900C7FE0A3E0A3E0850D81D00D22C020
:102C74000D85810D058105810581AD82AE83AFF09F
:102C8400C0E0C0A8C2AFED4E6003022C9F900C7F41
:102C9400E0FAA3E0FBA3E0FC022CA58D028E038FD7
:102CA40004A80D08A60208A60308A604A80D087423
:102CB4000326FA74000836FB0886048A828B838C08
:102CC400F01271E3A80D08741126FA74000836FB9B
:102CD400088604A80D08741C26FD74000836FE0836
:102CE40086078D828E838FF0127C4DFDA3127C4D5E
:102CF400FEA3127C4DFFED4E7003022D0A8A828BD7
:102D0400838CF01271E3900C8CE02401F0900C7F22
:102D1400E0FDA3E0FEA3E0FFA80D08C005C006C0C7
:102D24000786820886830886F01200311581158192
:102D3400158170028003022D6EA80D08740326FD10
:102D440074000836FE088607C005C006C0077582F1
:102D54007075830075F000126E6F158115811581F1
:102D6400900C82E02401F0022D77900C83E014F0A3
:102D74001250F0D0E053E080E5E042A8D0E0900C9F
:102D84007FE0FDA3E0FEA3E0FFA80D08C005C00698
:102D9400C00786820886830886F0120031158115E3
:102DA4008115817003022DBAA80D088682088683D6
:102DB4000886F01250AD900C87E07003022DF2905B
:102DC4000C7FE0FDA3E0FEA3E0FFA80D08C005C052
:102DD40006C00786820886830886F01200311581B2
:102DE4001581158170028003022DF212773C850D46
:102DF40081D00D22AE82AF837D00EE4F7003022E90
:102E040024C007C006122E9CD006D0077400C0E070
:102E14008E828F83126C3A1581122EA4AF828F0595
:102E2400ED6003022E2D12773C22748FC0E0740CE7
:102E3400C0E07400C0E0C0E0C0E0C0E0C0E074A73F
:102E4400C0E07400C0E07441C0E0747DC0E07480F0
:102E5400C0E07582B675834F122544AF82E58124A4
:102E6400F4F581BF01028003022E8AC2AF900C8D5B
:102E740074FFF0A3F0900C877401F0900C8474003C
:102E8400F0A3F01276C1907D40E49322C2AF900C7F
:102E9400877400F012773B22900C92E02401F02218
:102EA400C00D85810DE5812415F581E50D2410F80B
:102EB4007400F608F6087600C0E0C0A8C2AF900C13
:102EC40092E014F0E06003023506900C83E0700396
:102ED400023506900064E070030234AF90006AE0AB
:102EE400FAA3E0FBA3E0FC74082AFA74003BFB8A13
:102EF400828B838CF0127C4DFAA3127C4DFBA312BF
:102F04007C4DFCE50D2410F8A60208A60308A604CF
:102F1400E50D2410F8741126FA74000836FB0886AF
:102F240004E50D2410F8741C26FD74000836FE0810
:102F340086078D828E838FF0E50D2413F8127C4D65
:102F4400F6A3127C4D08F6A3127C4D08F6E50D2479
:102F540010F8E50D2404F9741326F77400083609F3
:102F6400F708E609F7E50D2404F886820886830845
:102F740086F0127C4DFDA3127C4DFEA3127C4DFF06
:102F8400E50D2407F874052DF674003E08F608A62E
:102F940007E50D2410F8A90D09741626F774000826
:102FA4003609F708E609F7A80D088682088683081B
:102FB40086F0127C4DFDA3127C4DFEA3127C4DFFC6
:102FC400E50D2407F886820886830886F0ED1279D9
:102FD40022A3EE127922A3EF127922A80D08868289
:102FE4000886830886F0127C4DFDA3127C4DFEA357
:102FF400127C4DFFE50D2407F874022DF674003E93
:1030040008F608A607E50D2404F8868208868308D6
:1030140086F0127C4DFDA3127C4DFEA3127C4DFF65
:10302400E50D2407F886820886830886F0ED127978
:1030340022A3EE127922A3EF127922E50D2413F8CC
:10304400E50D2407F9740126F77400083609F7081A
:10305400E609F7E50D2407F886820886830886F0DA
:10306400127C4DFDA3127C4DFEA3127C4DFFC002C9
:10307400C003C0048D828E838FF012003115811538
:10308400811581700280030230C2A80D088682086F
:1030940086830886F0127C4DFDA3127C4DFEA3129C
:1030A4007C4DFFE50D2407F886820886830886F0A8
:1030B400ED127922A3EE127922A3EF127922740B76
:1030C4002AFA74003BFB8A828B838CF07400127999
:1030D40022A3127922A3127922E50D2413F8868201
:1030E4000886830886F0127C4DFF1FE50D2413F833
:1030F40086820886830886F0EF127922E50D241073
:10310400F8740326FD74000836FE088607E50D24CE
:1031140007F8740B2DF674003E08F608A607E50DB3
:103124002407F886820886830886F0E50D2413F9BF
:10313400127C4DF7A3127C4D09F7A3127C4D09F7BD
:10314400A80D0874022DF674003E08F608A607A818
:103154000D0886820886830886F0127C4DFAA31235
:103164007C4DFBA3127C4DFCE50D240AF874052A62
:10317400F674003B08F608A604E50D2404F874056B
:103184002DF674003E08F608A607E50D2404F8861B
:10319400820886830886F0127C4DFAA3127C4DFBCC
:1031A400A3127C4DFCE50D240AF886820886830868
:1031B40086F0EA127922A3EB127922A3EC12792287
:1031C400E50D2404F886820886830886F0127C4D77
:1031D400FAA3127C4DFBA3127C4DFCE50D240AF8E6
:1031E40074022AF674003B08F608A604A80D0886A3
:1031F400820886830886F0127C4DFAA3127C4DFB6C
:10320400A3127C4DFCE50D240AF886820886830807
:1032140086F0EA127922A3EB127922A3EC12792226
:10322400E50D2413F8E50D240AF9740126F774005A
:10323400083609F708E609F7E50D240AF886820836
:1032440086830886F0127C4DFAA3127C4DFBA312F0
:103254007C4DFCC005C006C0078A828B838CF012AB
:103264000031158115811581700280030232A9E5B0
:103274000D2404F886820886830886F0127C4DFAB1
:10328400A3127C4DFBA3127C4DFCE50D240AF886A9
:10329400820886830886F0EA127922A3EB12792247
:1032A400A3EC127922C005C006C007E50D2407F877
:1032B40086820886830886F07400127922A3127924
:1032C40022A3127922E50D2413F886820886830846
:1032D40086F0127C4DFC1CE50D2413F886820886CA
:1032E400830886F0EC127922E50D2410F8E50D240C
:1032F4000DF9741F26F77400083609F708E609F774
:10330400E50D240DF886820886830886F0127C4D2C
:10331400FC900C86E0FFC3EF9CD007D006D005409C
:103324000302332D900C86ECF0E50D240DF8868213
:103334000886830886F0127C4DFCEC75F00CA424FE
:1033440016FB740035F0FC8B828C83A3E0FAA3E0B7
:10335400FBA3E0FCA80D0886820886830886F0EAB1
:10336400127922A3EB127922A3EC127922E50D241F
:103374000AF874052AF674003B08F608A604E50D5D
:10338400240AF886820886830886F0127C4DFAA304
:10339400127C4DFBA3127C4DFCE50D2404F88682BF
:1033A4000886830886F0EA127922A3EB127922A315
:1033B400EC127922E50D240AF886820886830886B1
:1033C400F0127C4DFAA3127C4DFBA3127C4DFC74CD
:1033D400022AFA74003BFB8A828B838CF0ED12790B
:1033E40022A3EE127922A3EF127922E50D240AF822
:1033F40086820886830886F0ED127922A3EE12797C
:1034040022A3EF127922E50D240DF8868208868323
:103414000886F0127C4DFFEF75F00CA42416FE74A0
:103424000035F0FF7D00E50D2407F88682088683C9
:103434000886F0EE127922A3EF127922A3ED127915
:1034440022E50D240DF886820886830886F0127C16
:103454004DFFEF75F00CA42416FE740035F0FF8EBA
:10346400828F83E0FD0D8E828F83EDF0E50D240DB8
:10347400F886820886830886F0127C4DFF900C7FC4
:10348400E0FCA3E0FDA3E0FE741F2CFC74003DFDF2
:103494008C828D838EF0127C4DFCC3EF9C50030212
:1034A4002ED7900C8A7401F0022ED7E50D2410F863
:1034B400E6084670030234BF1250F0900C88E0FE18
:1034C400A3E0FF8E048F05EE4F70030235028C06D5
:1034D4008D07C007C0061235A6E582D006D0077056
:1034E400030234EE900C8A7401F01EBEFF011FEE3D
:1034F4004F60030234D6900C887400F0A3F0900C53
:103504008AE0D0E053E080E5E042A8D0E075820094
:10351400850D81D00D22C0E0C0A8C2AF900C84E01C
:10352400FEA3E0FFD0E053E080E5E042A8D0E08EC7
:10353400828F8322900C84E0FEA3E0FF8E828F832F
:1035440022900C83E0FF8F8222AD82AE83AFF0ED38
:103554004E6003023568900C7FE0FAA3E0FBA3E021
:10356400FC02356E8D028E038F0474232AFA7400D4
:103574003BFB8A828B838CF022AE82AF83C007C070
:1035840006122E9CD006D007900C88E0FCA3E0FD28
:10359400900C88EE2CF0EF3DA3F0122EA4AF828F96
:1035A4008222C00D85810DE5812417F581900C924E
:1035B400E06003023C9E900C84E0FEA3E0FFE50D76
:1035C4002413F874012EF674003F08F6E50D241355
:1035D400F8900C84E6F008E6A3F0E50D2413F8E671
:1035E4000846600302362090005EE0FBA3E0FCA3E3
:1035F400E0FD900061E0FAA3E0FEA3E0FF90005E2E
:10360400EAF0EEA3F0EFA3F0900061EBF0ECA3F08E
:10361400EDA3F0900C8BE004F01250F0900C8DE0D0
:10362400FCA3E0FDE50D2413F8C3E69C08E69D50D9
:1036340003023CAA90005EE0FBA3E0FCA3E0FD8B48
:10364400828C838DF0127C4D600302365C900C8D6D
:1036540074FFF0A3F0023CAA90005EE0FBA3E0FC40
:10366400A3E0FD74042BFB74003CFC74022BFB747C
:10367400003CFC8B828C838DF0127C4DFBA3127C6E
:103684004DFCA3127C4DFD74082BFB74003CFC8B99
:10369400828C838DF0127C4DFBA3127C4DFCA31213
:1036A4007C4DFDE50D2410F8A60308A60408A60524
:1036B400E50D2410F8740326FE74000836FA088613
:1036C400078E828A838FF0127C4DFEA3127C4DFFFD
:1036D400E50D2413F8C3E69E08E69F40030236EF87
:1036E400900C8DEEF0EFA3F0023CAAE50D2410F847
:1036F400740326FA74000836FE088607E50D2410C4
:10370400F8740E26FB74000836FC0886058B828C40
:10371400838DF0E50D2415F8127C4DF6A3127C4D33
:1037240008F6A3127C4D08F6E50D2410F8E50D24E7
:1037340004F9740526F77400083609F708E609F752
:10374400E50D2404F886820886830886F0127C4DF1
:10375400FBA3127C4DFCA3127C4DFDA80D0874053F
:103764002BF674003C08F608A605E50D2410F8E5D0
:103774000D2407F9740826F77400083609F708E6DB
:1037840009F7E50D2407F886820886830886F01277
:103794007C4DFBA3127C4DFCA3127C4DFDA80D08AF
:1037A40086820886830886F0EB127922A3EC1279CC
:1037B40022A3ED127922E50D2407F8868208868378
:1037C4000886F0127C4DFBA3127C4DFCA3127C4DA9
:1037D400FDA80D0874022BF674003C08F608A60533
:1037E400E50D2404F886820886830886F0127C4D51
:1037F400FBA3127C4DFCA3127C4DFDA80D08868210
:103804000886830886F0EB127922A3EC127922A3AE
:10381400ED127922E50D2415F8A90D09740126F796
:103824007400083609F708E609F7A80D0886820827
:1038340086830886F0127C4DFBA3127C4DFCA312F8
:103844007C4DFDC002C006C0078B828C838DF012B4
:10385400003115811581158170028003023897E5C6
:103864000D2407F886820886830886F0127C4DFBB7
:10387400A3127C4DFCA3127C4DFDA80D0886820882
:1038840086830886F0EB127922A3EC127922A3ED49
:10389400127922E50D240DF8740B2AF674003E0803
:1038A400F608A607E50D240DF886820886830886A7
:1038B400F07400127922A3127922A3127922C00291
:1038C400C006C007E50D2415F8868208868308869D
:1038D400F0127C4DFF1FE50D2415F88682088683BF
:1038E4000886F0EF127922E50D2410F8A90D097469
:1038F4001126F77400083609F708E609F7A80D0839
:10390400E50D2407F9740B26F77400083609F70847
:10391400E609F7E50D2407F886820886830886F011
:10392400127C4DFBA3127C4DFCA3127C4DFDD007F1
:10393400D006D002EB4C7003023AF0C002C006C0BD
:1039440007E50D2415F8A60308A60408A605A80D86
:1039540008740226FA74000836FE0886078A828EE6
:10396400838FF0127C4DFBA3127C4DFCA3127C4D83
:10397400FDE50D240AF874052BF674003C08F608DE
:10398400A605A80D08E50D2404F9740526F77400AE
:10399400083609F708E609F7E50D2404F8868208D5
:1039A40086830886F0127C4DFBA3127C4DFCA31287
:1039B4007C4DFDE50D240AF886820886830886F08E
:1039C400EB127922A3EC127922A3ED127922E50DF0
:1039D4002404F886820886830886F0127C4DFBA3B3
:1039E400127C4DFCA3127C4DFD74022BFB74003C35
:1039F400FC8A828E838FF0127C4DFAA3127C4DFEDA
:103A0400A3127C4DFF8B828C838DF0EA127922A362
:103A1400EE127922A3EF127922E50D2415F8E50DB3
:103A2400240AF9740126F77400083609F708E60930
:103A3400F7E50D240AF886820886830886F0127C4E
:103A44004DFDA3127C4DFEA3127C4DFFA80D08C0B2
:103A540005C006C00786820886830886F0120031F6
:103A640015811581158170028009D007D006D00216
:103A7400023AB3D007D006D002E50D2404F88682BA
:103A84000886830886F0127C4DFBA3127C4DFCA3B0
:103A9400127C4DFDE50D240AF8868208868308868B
:103AA400F0EB127922A3EC127922A3ED127922E52C
:103AB4000D2407F886820886830886F0740012793C
:103AC40022A3127922A3127922E50D2415F8868205
:103AD4000886830886F0127C4DFD1DE50D2415F83B
:103AE40086820886830886F0ED127922C002C00619
:103AF400C007E50D2410F8A90D09741F26F77400FA
:103B0400083609F708E609F7A80D088682088683AF
:103B14000886F0127C4DFD900C86E0FFC3EF9DD02B
:103B240007D006D0024003023B33900C86EDF0A888
:103B34000D0886820886830886F0127C4DFDED759B
:103B4400F00CA42416FC740035F0FD8C828D83A344
:103B5400E50D2415F8E0F6A3E008F6A3E008F674F2
:103B6400022AFB74003EFC8F058B828C838DF0E56A
:103B74000D2415F8E6127922A308E6127922A30887
:103B8400E6127922E50D240AF874052AF674003E3B
:103B940008F608A607E50D2415F8E50D2407F974C1
:103BA4000526F77400083609F708E609F7E50D2439
:103BB40007F886820886830886F0127C4DFBA312E0
:103BC4007C4DFCA3127C4DFDE50D240AF886820889
:103BD40086830886F0EB127922A3EC127922A3EDF6
:103BE400127922E50D2407F886820886830886F078
:103BF400127C4DFBA3127C4DFCA3127C4DFD740280
:103C04002BFB74003CFC8B828C838DF0EA127922AE
:103C1400A3EE127922A3EF127922E50D2407F88688
:103C2400820886830886F0EA127922A3EE127922AA
:103C3400A3EF127922A80D0886820886830886F0ED
:103C4400127C4DFFEF75F00CA42416FE740035F0C1
:103C5400FF7D00E50D240DF886820886830886F032
:103C6400EE127922A3EF127922A3ED127922A80D84
:103C74000886820886830886F0127C4DFFEF75F073
:103C84000CA42416FE740035F0FF8E828F83E0FDB1
:103C94000D8E828F83EDF0023638900C88E024017B
:103CA400F0A3E03400F0758200850D81D00D22C0B0
:103CB4000D85810DE581240AF581900C92E0700355
:103CC400023CD0900C8A7401F0023E40900C8A743D
:103CD40000F0900C86E0FFEF75F00CA4FDAEF0ED63
:103CE4002416FBEE3400FC8B828C83E06003023CE0
:103CF400F91F023CDBE50D2407F8A607ED2416FDA9
:103D0400EE3400FEE50D2408F8A60508A60608769C
:103D140000E50D2408F8740126FA74000836FB083F
:103D240086078A828B838FF0127C4DFCA3127C4D14
:103D3400FDA3127C4DFE74022CFC74003DFD8C82AC
:103D44008D838EF0127C4DFCA3127C4DFDA3127C5E
:103D54004DFE8A828B838FF0EC127922A3ED1279C7
:103D640022A3EE1279228A828B838FF0A80D081287
:103D74007C4DF6A3127C4D08F6A3127C4D08F6E5A3
:103D84000D2404F8A60408A60508A606E50D2408D3
:103D9400F8740426FC74000836FD088606E50D2434
:103DA40004F8C004C005C00686820886830886F02D
:103DB40012003115811581158170028003023DFBCB
:103DC400A80D08740226FC74000836FD0886068CCB
:103DD400828D838EF0127C4DFCA3127C4DFDA312C8
:103DE4007C4DFE8A828B838FF0EC127922A3ED1234
:103DF4007922A3EE1279228A828B838FF0127C4D72
:103E0400FAA3127C4DFBA3127C4DFF74082AFA74AA
:103E1400003BFB8A828B838FF0127C4DFAA3127CC9
:103E24004DFBA3127C4DFF900C7FEAF0EBA3F0EF67
:103E3400A3F0E50D2407F8900C86E6F0850D81D0FB
:103E44000D22C00D85810DAD82AE83AFF0900C7F45
:103E5400E0FAA3E0FBA3E0FC74112AFA74003BFB34
:103E6400C002C003C0048D828E838FF0126FD315FD
:103E740081158115817401C0E0E50D24FCF886826A
:103E8400088683126C3A1581D00D22C00D85810DF0
:103E9400C082C083C0F0058105810581900C7FE05C
:103EA400FAA3E0FBA3E0FC74112AFA74003BFBE5DF
:103EB4000D24FCF886060886074307808A828B83D4
:103EC4008CF0EE127922A3EF127922A80D08740166
:103ED40026FD74000836FE0886078D828E838FF0D7
:103EE400127C4DFDA3127C4DFEA3127C4DFF900C61
:103EF4007FE0FAA3E0FBA3E0FC74112AFA74003B10
:103F0400FB74022AFA74003BFB8A828B838CF0EDEB
:103F1400127922A3EE127922A3EF127922900C7F58
:103F2400E0FAA3E0FBA3E0FC74112AFA74003BFB63
:103F3400E50D2404F874052AF674003B08F608A677
:103F44000474052DFD74003EFE8D828E838FF01265
:103F54007C4DFAA3127C4DFBA3127C4DFCE50D2491
:103F640004F886820886830886F0EA127922A3EB95
:103F7400127922A3EC1279228D828E838FF0127C27
:103F84004DFAA3127C4DFBA3127C4DFCE50D2404D9
:103F9400F874022AF674003B08F608A604900C7F15
:103FA400E0FAA3E0FBA3E0FC74112AFA74003BFBE3
:103FB400E50D2404F886820886830886F0EA1279DF
:103FC40022A3EB127922A3EC127922900C7FE0FA5F
:103FD400A3E0FBA3E0FC74112AFA74003BFB8D827E
:103FE4008E838FF0EA127922A3EB127922A3EC12CA
:103FF4007922900C7FE0FDA3E0FEA3E0FF74112D75
:10400400FD74003EFE740B2DFD74003EFE8D828E09
:10401400838FF0A80D08E6127922A308E61279220C
:10402400A308E6127922A80D0886820886830886EA
:10403400F0127C4DFF0FA80D08868208868308863F
:10404400F0EF1279227401C0E0E50D24FAF88682BB
:10405400088683126C3A1581850D81D00D22C00D1E
:1040640085810DE5812419F581AD82AE83AFF074AD
:10407400042DFD74003EFE74022DFD74003EFE8D81
:10408400828E838FF0127C4DFDA3127C4DFEA31211
:104094007C4DFF74082DFD74003EFE8D828E838F4F
:1040A400F0127C4DFDA3127C4DFEA3127C4DFFE566
:1040B4000D2414F8A60508A60608A607E50D241481
:1040C400F8741126FA74000836FB088604E50D24FA
:1040D40014F8741C26FD74000836FE0886078D82C9
:1040E4008E838FF0E50D2417F8127C4DF6A3127C15
:1040F4004D08F6A3127C4D08F6E50D2414F8E50DE1
:104104002404F9741326F77400083609F708E6093D
:10411400F7E50D2404F886820886830886F0127C6D
:104124004DFDA3127C4DFEA3127C4DFFA80D087417
:10413400052DF674003E08F608A607E50D2414F8CC
:10414400E50D2410F9741626F77400083609F708EB
:10415400E609F7E50D2410F886820886830886F0C0
:10416400127C4DFDA3127C4DFEA3127C4DFFA80DC5
:104174000886820886830886F0ED127922A3EE125F
:104184007922A3EF127922E50D2410F8868208869D
:10419400830886F0127C4DFDA3127C4DFEA3127C95
:1041A4004DFFA80D0874022DF674003E08F608A60B
:1041B40007E50D2404F886820886830886F0127CBD
:1041C4004DFDA3127C4DFEA3127C4DFFA80D088665
:1041D400820886830886F0ED127922A3EE127922F2
:1041E400A3EF127922E50D2417F8A90D097401260D
:1041F400F77400083609F708E609F7A80D0886825F
:104204000886830886F0127C4DFDA3127C4DFEA324
:10421400127C4DFFC002C003C0048D828E838FF0D8
:1042240012003115811581158170028003024268E4
:10423400E50D2410F886820886830886F0127C4DEA
:10424400FDA3127C4DFEA3127C4DFFA80D088682AF
:104254000886830886F0ED127922A3EE127922A350
:10426400EF127922E50D2407F8740B2AF674003B4B
:1042740008F608A604E50D2407F886820886830854
:1042840086F07400127922A3127922A3127922C033
:1042940002C003C004E50D2417F88682088683084B
:1042A40086F0127C4DFC1CE50D2417F886820886E6
:1042B400830886F0EC127922900C92E0D004D003AB
:1042C400D00260030246B8E50D2414F8740326FCFA
:1042D40074000836FB088602E50D2410F8740B2CD4
:1042E400F674003B08F608A602E50D2410F8868251
:1042F4000886830886F0127C4DFFA3127C4DFEA332
:10430400127C4DFDE50D2404F874022CF674003B78
:1043140008F608A602E50D2404F8868208868308B8
:1043240086F0E50D240AF9127C4DF7A3127C4D09A1
:10433400F7A3127C4D09F7E50D240AF8740526F657
:1043440074000836F6E50D240DF874052CF6740097
:104354003B08F608A602E50D240DF886820886833C
:104364000886F0E50D2407F9127C4DF7A3127C4D65
:1043740009F7A3127C4D09F7E50D240AF886820893
:1043840086830886F0E50D2407F9E7127922A3094C
:10439400E7127922A309E7127922E50D240DF886A4
:1043A400820886830886F0E50D2407F9127C4DF710
:1043B400A3127C4D09F7A3127C4D09F7E50D2407E0
:1043C400F8740226F674000836F6E50D2404F8861F
:1043D400820886830886F0E50D240AF9127C4DF7DD
:1043E400A3127C4D09F7A3127C4D09F7E50D2407B0
:1043F400F886820886830886F0E50D240AF9E71218
:104404007922A309E7127922A309E7127922E50D9B
:104414002407F874012FF674003E08F608A605E593
:104424000D2407F886820886830886F0E50D240AA1
:10443400F9127C4DF7A3127C4D09F7A3127C4D09A8
:10444400F7E50D240AF8C004C003C002868208867A
:10445400830886F012003115811581158170028060
:10446400030244ACE50D240DF88682088683088691
:10447400F0E50D240AF9127C4DF7A3127C4D09F7DF
:10448400A3127C4D09F7E50D2407F886820886837C
:104494000886F0E50D240AF9E7127922A309E71248
:1044A4007922A309E7127922E50D2410F8868208FF
:1044B40086830886F07400127922A3127922A3124B
:1044C40079228F828E838DF0E50D2407F8127C4DBE
:1044D400F6E50D2407F8E50D2407F9E614F78F82B5
:1044E4008E838DF0E50D2407F8E6127922E50D247C
:1044F40014F8741F26FF74000836FE0886058F82A0
:104504008E838DF0E50D240AF8127C4DF6900C860E
:10451400E50D2413F8E0F6E50D240AF8E50D24135F
:10452400F9C3E7964003024537E50D240AF8900CD9
:1045340086E6F08F828E838DF0E50D2413F8127CCD
:104544004DF6E50D2413F8E675F00CA4C8E50D242A
:104554000AC82416F6740035F008F6E50D240AF8A6
:104564008682088683A3E50D2417F8E0F6A3E00805
:10457400F6A3E008F6E50D2404F88682088683088D
:1045840086F0E50D2417F9E7127922A309E71279D9
:1045940022A309E7127922E50D2417F8E50D240A70
:1045A400F9740526F77400083609F708E609F7E5F3
:1045B4000D240AF886820886830886F0E50D240413
:1045C400F9127C4DF7A3127C4D09F7A3127C4D0917
:1045D400F7E50D240DF886820886830886F0E50D3C
:1045E4002404F9E7127922A309E7127922A309E73F
:1045F400127922E50D240AF886820886830886F05B
:10460400E50D240DF9127C4DF7A3127C4D09F7A397
:10461400127C4D09F7E50D240DF8740226F674009A
:104624000836F6E50D240DF886820886830886F0A0
:10463400EC127922A3EB127922A3EA127922E50D76
:10464400240AF886820886830886F0EC127922A36D
:10465400EB127922A3EA1279228F828E838DF012D3
:104664007C4DFCEC75F00CA42416FC740035F0FBB6
:104674007A00E50D2410F886820886830886F0EC1B
:10468400127922A3EB127922A3EA1279228F828E65
:10469400838DF0127C4DFFEF75F00CA42416FF748B
:1046A4000035F0FE8F828E83E0FD0D8F828E83EDC8
:1046B400F00247C9900065E50D2417F8E0F6A3E081
:1046C40008F6A3E008F674022AFD74003BFE8C078A
:1046D4008D828E838FF0E50D2417F8E6127922A3DC
:1046E40008E6127922A308E6127922E50D240DF8D2
:1046F40074052AF674003B08F608A604E50D241791
:10470400F8E50D240AF9740526F77400083609F74C
:1047140008E609F7E50D240AF886820886830886E8
:10472400F0127C4DFDA3127C4DFEA3127C4DFFE5DF
:104734000D240DF886820886830886F0ED1279220E
:10474400A3EE127922A3EF127922E50D240AF8864A
:10475400820886830886F0127C4DFDA3127C4DFEF0
:10476400A3127C4DFF74022DFD74003EFE8D828EDB
:10477400838FF0EA127922A3EB127922A3EC127947
:1047840022E50D240AF886820886830886F0EA1258
:104794007922A3EB127922A3EC127922E50D2407E6
:1047A400F886820886830886F07464127922A374DA
:1047B40000127922A37400127922900064E0FF0FA2
:1047C400900064EFF0E50D2414F8741F26FD7400C6
:1047D4000836FE0886078D828E838FF0127C4DFD8D
:1047E400900C7FE0FCA3E0FEA3E0FF741F2CFC749C
:1047F400003EFE8C828E838FF0127C4DFCC3EC9DB8
:1048040040030248137F01900C8AEFF00248157FA1
:10481400008F82850D81D00D22C00D85810DC0824F
:10482400C083C0F0E5812415F581E50D24FCF886EC
:1048340003088604430480A80D088682088683083A
:1048440086F0EB127922A3EC127922A80D087408E1
:1048540026FA74000836FB0886048A828B838CF05F
:10486400127C4DFAA3127C4DFBA3127C4DFCE50D8A
:104874002413F8A60208A60308A604A80D08740BBE
:1048840026FA74000836FB0886048A828B838CF02F
:10489400E50D2416F8127C4DF6A3127C4D08F6A300
:1048A400127C4D08F6A80D08E50D2404F9740226BF
:1048B400F77400083609F708E609F7E50D2404F84B
:1048C40086820886830886F0127C4DFDA3127C4DF7
:1048D400FEA3127C4DFFE50D2407F874052DF67434
:1048E400003E08F608A607A80D08E50D240AF97489
:1048F4000526F77400083609F708E609F7E50D24DC
:104904000AF886820886830886F0127C4DFDA3127D
:104914007C4DFEA3127C4DFFE50D2407F88682082A
:1049240086830886F0ED127922A3EE127922A3EF92
:10493400127922E50D240AF886820886830886F017
:10494400127C4DFDA3127C4DFEA3127C4DFFE50DA0
:104954002407F874022DF674003E08F608A607E54D
:104964000D2404F886820886830886F0127C4DFDA7
:10497400A3127C4DFEA3127C4DFFE50D2407F8869F
:10498400820886830886F0ED127922A3EE1279223A
:10499400A3EF127922E50D2416F8E50D2407F97426
:1049A4000126F77400083609F708E609F7E50D242F
:1049B40007F886820886830886F0127C4DFDA312D0
:1049C4007C4DFEA3127C4DFFA80D08C005C006C097
:1049D4000786820886830886F012003115811581C6
:1049E400158170028003024A23E50D240AF88682A9
:1049F4000886830886F0127C4DFDA3127C4DFEA32D
:104A0400127C4DFFE50D2407F8868208868308860C
:104A1400F0ED127922A3EE127922A3EF1279228A01
:104A2400828B838CF07400127922A3127922A31250
:104A34007922E50D2416F886820886830886F0120A
:104A44007C4DFF1FE50D2416F886820886830886B0
:104A5400F0EF127922E50D2413F8740326FD740097
:104A64000836FE088607E50D2407F8740B2DF67446
:104A7400003E08F608A607E50D2407F88682088696
:104A8400830886F0E50D2416F9127C4DF7A3127CF9
:104A94004D09F7A3127C4D09F7E50D240AF87402B9
:104AA4002DF674003E08F608A607E50D240AF886DC
:104AB400820886830886F0127C4DFAA3127C4DFB93
:104AC400A3127C4DFCE50D2410F874052AF674003D
:104AD4003B08F608A604E50D2404F874052DF674C5
:104AE400003E08F608A607E50D2404F88682088629
:104AF400830886F0127C4DFAA3127C4DFBA3127C32
:104B04004DFCE50D2410F886820886830886F0EAB9
:104B1400127922A3EB127922A3EC127922E50D2457
:104B240004F886820886830886F0127C4DFAA31264
:104B34007C4DFBA3127C4DFCE50D2410F874022A75
:104B4400F674003B08F608A604E50D240AF88682EC
:104B54000886830886F0127C4DFAA3127C4DFBA3D1
:104B6400127C4DFCE50D2410F886820886830886A5
:104B7400F0EA127922A3EB127922A3EC127922E54E
:104B84000D2416F8E50D2410F9740126F7740008B5
:104B94003609F708E609F7E50D2410F88682088639
:104BA400830886F0127C4DFAA3127C4DFBA3127C81
:104BB4004DFCC005C006C0078A828B838CF01200AE
:104BC4003115811581158170028003024C08E50DB1
:104BD4002404F886820886830886F0127C4DFAA3A2
:104BE400127C4DFBA3127C4DFCE50D2410F886824B
:104BF4000886830886F0EA127922A3EB127922A3AD
:104C0400EC127922C005C006C007E50D2407F8861A
:104C1400820886830886F07400127922A31279220E
:104C2400A3127922E50D2416F88682088683088665
:104C3400F0127C4DFC1CE50D2416F8868208868350
:104C44000886F0EC127922E50D2413F8E50D240D05
:104C5400F9741F26F77400083609F708E609F7E522
:104C64000D240DF886820886830886F0127C4DFC9C
:104C7400900C86E0FFC3EF9CD007D006D00540031C
:104C8400024C8C900C86ECF0E50D240DF88682081D
:104C940086830886F0127C4DFCEC75F00CA4241677
:104CA400FB740035F0FC8B828C83A3E0FAA3E0FB59
:104CB400A3E0FCE50D240AF886820886830886F0C2
:104CC400EA127922A3EB127922A3EC127922E50DE0
:104CD4002410F874052AF674003B08F608A604E5C7
:104CE4000D2410F886820886830886F0127C4DFA1B
:104CF400A3127C4DFBA3127C4DFCE50D2404F88625
:104D0400820886830886F0EA127922A3EB127922BC
:104D1400A3EC127922E50D2410F886820886830814
:104D240086F0127C4DFAA3127C4DFBA3127C4DFC41
:104D340074022AFA74003BFB8A828B838CF0ED1296
:104D44007922A3EE127922A3EF127922E50D241021
:104D5400F886820886830886F0ED127922A3EE1283
:104D64007922A3EF127922E50D240DF886820886B4
:104D7400830886F0127C4DFFEF75F00CA42416FE18
:104D8400740035F0FF7D00E50D2407F8868208865F
:104D9400830886F0EE127922A3EF127922A3ED1292
:104DA4007922E50D240DF886820886830886F012A0
:104DB4007C4DFFEF75F00CA42416FE740035F0FF53
:104DC4008E828F83E0FD0D8E828F83EDF0E50D24BE
:104DD4000DF886820886830886F0127C4DFF900CBD
:104DE4007FE0FCA3E0FDA3E0FE741F2CFC74003DF7
:104DF400FD8C828D838EF0127C4DFCC3EC9F4003AE
:104E0400024E0D900C8A7401F0850D81D00D22ADF7
:104E140082AE83AFF0C0E0C0A8C2AF900C8BE0FCC0
:104E24008D828E838FF0EC1279220DBD00010E90DD
:104E34000C84E0FBA3E0FC8D828E838FF0EB12796F
:104E440022A3EC127922D0E053E080E5E042A8D01E
:104E5400E022AD82AE83AFF0900C8BE0FC8D828EAD
:104E6400838FF0EC1279220DBD00010E900C84E0CA
:104E7400FBA3E0FC8D828E838FF0EB127922A3ECEE
:104E840012792222C00D85810DC082C083C0F0E555
:104E9400812404F581C0E0C0A8C2AF900C84E0FB7B
:104EA400A3E0FCE50D2406F8A60308A604A80D0853
:104EB400740126FB74000836FA0886048B828A8300
:104EC4008CF0127C4DFBA3127C4DFCE50D2406F8FE
:104ED400E6C39BFE08E69CFF8E02A80D08868208A6
:104EE40086830886F0127C4DFE900C8BE0FDEDB5B8
:104EF4000603024F2AE50D2406F8C3E69B08E69C48
:104F04005003024F2A7E01E50D24FBF88603088630
:104F1400040886058B828C838DF07400127922A399
:104F2400127922024F9CE50D24FBF88603088604BF
:104F34000886058B828C838DF0E50D2404F8127CA1
:104F44004DF6A3127C4D08F6E50D2404F8C3EA9649
:104F5400EF08964003024F8BE50D2404F8E6C39A4C
:104F6400FA08E69FFF8B828C838DF0EA127922A3E4
:104F7400EF127922A80D0886820886830886F0122B
:104F84004E567E00024F9C8B828C838DF0740012EF
:104F94007922A31279227E01D0E053E080E5E04239
:104FA400A8D0E08E82850D81D00D22900C8A7401E8
:104FB400F02212503412773C024FB6227F00EF7574
:104FC400F00CA42416FD740035F0FE7C008D828E56
:104FD400838CF0C007126D66D0070FBF0400500326
:104FE400024FC275824675830075F000126D6675B6
:104FF400825275830075F000126D66758264758344
:105004000075F000126D6675827075830075F0008E
:10501400126D6690005E7446F07400A3F07400A3F1
:10502400F09000617452F07400A3F07400A3F022B5
:10503400900C82E070030250ACC0E0C0A8C2AF90F4
:105044000076E0FDA3E0FEA3E0FF74082DFD7400EC
:105054003EFE8D828E838FF0127C4DFDA3127C4D1B
:10506400FEA3127C4DFF74032DFA74003EFB8F04E3
:105074008A828B838CF0C007C006C0051271E3D00E
:1050840005D006D007900C83E014F0900C82E01455
:10509400F0D0E053E080E5E042A8D0E08D828E833A
:1050A4008FF01250AD02503422AD82AE83AFF07453
:1050B400202DFA74003EFB8F048A828B838CF012BD
:1050C4007C4DFAA3127C4DFBA3127C4DFC8A828B8F
:1050D400838CF0C007C006C0051274A7D005D006A3
:1050E400D0078D828E838FF01274A72290005EE029
:1050F400FDA3E0FEA3E0FF8D828E838FF0127C4D32
:105104006003025114900C8D74FFF0A3F002515A05
:1051140090005EE0FDA3E0FEA3E0FF74042DFD74A7
:10512400003EFE74022DFD74003EFE8D828E838F40
:10513400F0127C4DFDA3127C4DFEA3127C4DFF8D1D
:10514400828E838FF0127C4DFDA3127C4DFE900C59
:105154008DEDF0EEA3F022C00D85810D0581058152
:10516400900C7FE0FDA3E0FEA3E0FF74112DFD741D
:10517400003EFE8D828E838FF0A80D08127C4DF6C2
:10518400A3127C4D08F6900C7FE0FBA3E0FCA3E0A7
:10519400FF74112BFB74003CFC900C7FE0FAA3E03D
:1051A400FDA3E0FE741F2AFA74003DFD8A828D83FC
:1051B4008EF0127C4DFA7E007404C39AFA74009E39
:1051C400FE8B828C838FF0EA127922A3EE1279226D
:1051D400A80D088682088683850D81D00D22C00D16
:1051E40085810DC082E5812407F581C0E0C0A8C295
:1051F400AF900C7FE0FCA3E0FDA3E0FE742E2CFC3A
:1052040074003DFDA80D08E625E0FBEB25E0FBEB73
:105214002CFC74003DFD8C828D838EF0127C4DFC41
:10522400A3127C4DFDA3127C4DFEA3127C4DFAEC1F
:105234004D4E4A600302528F900C7FE0FCA3E0FDC8
:10524400A3E0FE74322CFC74003DFDA80D08E62C8E
:10525400FC74003DFD8C828D838EF07401127922E2
:10526400E50D24FBF8E60846700302528FC0037470
:1052740001C0E0E50D24FBF88682088683126C3AAF
:105284001581D003C00312773CD003D0E053E080F3
:10529400E5E042A8D0E0C0E0C0A8C2AF900C7FE037
:1052A400FEA3E0FCA3E0FD742E2EFE74003CFCEB98
:1052B4002EFE74003CFC8E828C838DF0E50D24055B
:1052C400F8127C4DF6A3127C4D08F6A3127C4D080F
:1052D400F6A3127C4D08F6E50D2405F8E608460809
:1052E4004608467003025384E50D24FDF8E6700376
:1052F40002532B900C7FE0FDA3E0FEA3E0FF742E8D
:105304002DFD74003EFEEB2DFD74003EFE8D828E5D
:10531400838FF07400127922A3127922A3127922C6
:10532400A3127922025384900C7FE0FCA3E0FDA336
:10533400E0FE742E2CFC74003DFDA80D0808EB2C37
:10534400F674003D08F608A606E50D2405F8E624E3
:10535400FFFA08E634FFFB08E634FFFE08E634FFF4
:10536400FFA80D080886820886830886F0EA127969
:1053740022A3EB127922A3EE127922A3EF1279224F
:10538400900C7FE0FDA3E0FEA3E0FF74322DFD74DA
:10539400003EFEA80D08E62DFD74003EFE8D828EB3
:1053A400838FF07400127922D0E053E080E5E0426C
:1053B400A8D0E0E50D2405F886820886830886F0E7
:1053C40008E6850D81D00D22C00D85810DC082E5D2
:1053D40081240EF581C0E0C0A8C2AF900C7FE0FC30
:1053E400A3E0FDA3E0FE74322CFC74003DFDA80D87
:1053F40008E62CFC74003DFD8C828D838EF0127CBB
:105404004DFCBC0203025506900C7FE0FCA3E0FDBA
:10541400A3E0FE742E2CFC74003DFDA80D08E625C7
:10542400E0FBEB25E0FBA80D0808EB2CF674003D2F
:1054340008F608A606900C7FE0FAA3E0FFA3E0FEBE
:10544400742E2AFA74003FFFEB2AFD74003FFFE537
:105454000D24FAF8E50D240CF9E6F4F708E6F4094E
:10546400F708E6F409F708E6F409F78D828F838ECE
:10547400F0127C4DFCA3127C4DFBA3127C4DFEA3C9
:10548400127C4DFFE50D240CF8E6520408E65203A5
:1054940008E6520608E65207A80D08088682088620
:1054A400830886F0EC127922A3EB127922A3EE1280
:1054B4007922A3EF127922900C7FE0FDA3E0FEA3F2
:1054C400E0FF74322DFD74003EFEA80D08E62DFDAC
:1054D40074003EFE8D828E838FF07401127922E572
:1054E4000D24F1F8E6084670030255067401C0E085
:1054F400E50D24F1F88682088683126C3A15811230
:10550400773CD0E053E080E5E042A8D0E0C0E0C0C2
:10551400A8C2AFE50D24F3F8E60846700302559AD5
:10552400E50D24F3F8E50D2405F9E6F708E609F797
:1055340008E609F7900C7FE0FAA3E0FBA3E0FC7413
:105544002E2AFF74003BFE8C05A80D08E625E0FC1E
:10555400EC25E0FCEC2FFA74003EFB8D048A828B70
:10556400838CF0127C4DFAA3127C4DFBA3127C4D6C
:10557400FCA3127C4DFFE50D2405F8868208868382
:105584000886F0EA127922A3EB127922A3EC1279AD
:1055940022A3EF127922900C7FE0FDA3E0FEA3E0AA
:1055A400FF74322DFD74003EFEA80D08E62DFD7437
:1055B400003EFE8D828E838FF0127C4DFDBD020372
:1055C4000255CC7F0002567F900C7FE0FCA3E0FDE7
:1055D400A3E0FE742E2CFC74003DFDA80D08E62506
:1055E400E0FBEB25E0FBE50D240CF8EB2CF6740056
:1055F4003D08F608A606900C7FE0FAA3E0FDA3E0C0
:10560400FE742E2AFA74003DFDEB2AFF74003DFD62
:10561400E50D24F6F8E50D2408F9E6F4F708E6F4B8
:1056240009F708E6F409F708E6F409F78F828D8391
:105634008EF0127C4DFCA3127C4DFDA3127C4DFA1E
:10564400A3127C4DFEE50D2408F8E6520408E65248
:105654000508E6520208E65206E50D240CF8868297
:105664000886830886F0EC127922A3ED127922A32E
:10567400EA127922A3EE1279227F01900C7FE0FCDA
:10568400A3E0FDA3E0FE74322CFC74003DFDA80DE4
:1056940008E62CFC74003DFD8C828D838EF0740032
:1056A400127922D0E053E080E5E042A8D0E08F8276
:1056B400850D81D00D22C00D85810DE5812416F55F
:1056C40081AF82AE83ADF0E50D2413F87601E50DCC
:1056D4002410F8A60708A60608A605C0E0C0A8C2BC
:1056E400AFE50D24F5F8E60846700302575DE50DB5
:1056F40024F5F8E50D2407F9E6F708E609F708E6C6
:1057040009F7742E2FFF74003EFEE50D24FDF8E624
:1057140025E0FCEC25E0FCEC2FFA74003EFB8D0444
:105724008A828B838CF0127C4DFAA3127C4DFBA3EE
:10573400127C4DFCA3127C4DFFE50D2407F88682F4
:105744000886830886F0EA127922A3EB127922A351
:10575400EC127922A3EF127922E50D2410F87432A9
:1057640026FD74000836FE088607E50D24FDF8863C
:1057740002EA2DFD74003EFE8D828E838FF0127C32
:105784004DFC8D828E838FF07402127922E50D24F4
:10579400F8F8C37404965003025944E50D24F8F84C
:1057A400E626269057AB730259440257BA0258387A
:1057B4000258AF0258F3C004E50D2410F8742E26E5
:1057C400FD74000836FE088607EA25E0FBEB25E0B9
:1057D400FBA80D08EB2DF674003E08F608A607A8F2
:1057E4000D0886820886830886F0127C4DFAA3127F
:1057F4007C4DFBA3127C4DFCA3127C4DFFE50D24D4
:10580400F9F8E6420208E6420308E6420408E642E2
:1058140007A80D0886820886830886F0EA12792292
:10582400A3EB127922A3EC127922A3EF127922D0EE
:1058340004025944C004E50D2410F8742E26FD74A6
:10584400000836FE088607EA25E0FBEB25E0FBA806
:105854000D08EB2DF674003E08F608A607A80D08FF
:1058640086820886830886F0127C4DFAA3127C4D4A
:10587400FBA3127C4DFCA3127C4DFF0ABA00090B5A
:10588400BB00050CBC00010FA80D088682088683A6
:105894000886F0EA127922A3EB127922A3EC12799A
:1058A40022A3EF127922D004025944E50D2410F802
:1058B400742E26FD74000836FE088607EA25E0FBF0
:1058C400EB25E0FBEB2DFD74003EFE8D828E838F75
:1058D400F0E50D24F9F8E6127922A308E6127922FC
:1058E400A308E6127922A308E6127922025944BCDD
:1058F400020302593DE50D2410F8742E26FD7400B0
:105904000836FE088607EA25E0FBEB25E0FBEB2DD5
:10591400FD74003EFE8D828E838FF0E50D24F9F830
:10592400E6127922A308E6127922A308E612792264
:10593400A308E6127922025944E50D2413F87600EF
:10594400BC01028003025CC4E50D2410F874032634
:10595400FD74000836FE088607E50D2407F8740B6D
:105964002DF674003E08F608A607E50D2407F88610
:10597400820886830886F0E50D2414F9127C4DF71D
:10598400A3127C4D09F7A3127C4D09F7A80D0874E6
:10599400022DF674003E08F608A607A80D088682B4
:1059A4000886830886F0127C4DFAA3127C4DFBA373
:1059B400127C4DFCE50D240AF874052AF674003BAC
:1059C40008F608A604E50D240DF874052DF67400F8
:1059D4003E08F608A607E50D240DF886820886839E
:1059E4000886F0127C4DFAA3127C4DFBA3127C4D69
:1059F400FCE50D240AF886820886830886F0EA12FC
:105A04007922A3EB127922A3EC127922E50D240D5D
:105A1400F886820886830886F0127C4DFAA3127CED
:105A24004DFBA3127C4DFCE50D240AF874022AF602
:105A340074003B08F608A604A80D0886820886832D
:105A44000886F0127C4DFAA3127C4DFBA3127C4D08
:105A5400FCE50D240AF886820886830886F0EA129B
:105A64007922A3EB127922A3EC127922E50D2414F6
:105A7400F8E50D240AF9740126F77400083609F7CD
:105A840008E609F7E50D240AF88682088683088665
:105A9400F0127C4DFAA3127C4DFBA3127C4DFCC08A
:105AA40005C006C0078A828B838CF01200311581F1
:105AB4001581158170028003025AF5E50D240DF855
:105AC40086820886830886F0127C4DFAA3127C4DE8
:105AD400FBA3127C4DFCE50D240AF886820886831C
:105AE4000886F0EA127922A3EB127922A3EC127948
:105AF40022C005C006C007E50D2407F88682088683
:105B0400830886F07400127922A3127922A31279F1
:105B140022E50D2414F886820886830886F0127C18
:105B24004DFC1CE50D2414F886820886830886F053
:105B3400EC127922E50D2410F8E50D2404F9741F04
